{
  "contractName": "FlightSuretyData",
  "abi": [
    {
      "inputs": [],
      "stateMutability": "nonpayable",
      "type": "constructor"
    },
    {
      "anonymous": false,
      "inputs": [
        {
          "indexed": false,
          "internalType": "address",
          "name": "user",
          "type": "address"
        },
        {
          "indexed": false,
          "internalType": "uint256",
          "name": "credit",
          "type": "uint256"
        }
      ],
      "name": "CreditPaid",
      "type": "event"
    },
    {
      "anonymous": false,
      "inputs": [
        {
          "indexed": false,
          "internalType": "uint256",
          "name": "amount",
          "type": "uint256"
        }
      ],
      "name": "Received",
      "type": "event"
    },
    {
      "anonymous": false,
      "inputs": [
        {
          "indexed": false,
          "internalType": "address",
          "name": "user",
          "type": "address"
        },
        {
          "indexed": false,
          "internalType": "bool",
          "name": "vote",
          "type": "bool"
        }
      ],
      "name": "Voted",
      "type": "event"
    },
    {
      "stateMutability": "payable",
      "type": "fallback",
      "payable": true
    },
    {
      "inputs": [],
      "name": "airlineOwnersCount",
      "outputs": [
        {
          "internalType": "uint8",
          "name": "",
          "type": "uint8"
        }
      ],
      "stateMutability": "view",
      "type": "function",
      "constant": true
    },
    {
      "inputs": [],
      "name": "registeredAirlinesCount",
      "outputs": [
        {
          "internalType": "uint8",
          "name": "",
          "type": "uint8"
        }
      ],
      "stateMutability": "view",
      "type": "function",
      "constant": true
    },
    {
      "stateMutability": "payable",
      "type": "receive",
      "payable": true
    },
    {
      "inputs": [],
      "name": "isOperational",
      "outputs": [
        {
          "internalType": "bool",
          "name": "",
          "type": "bool"
        }
      ],
      "stateMutability": "view",
      "type": "function",
      "constant": true
    },
    {
      "inputs": [],
      "name": "getBalance",
      "outputs": [
        {
          "internalType": "uint256",
          "name": "",
          "type": "uint256"
        }
      ],
      "stateMutability": "view",
      "type": "function",
      "constant": true
    },
    {
      "inputs": [],
      "name": "getAirlineOwnersCount",
      "outputs": [
        {
          "internalType": "uint8",
          "name": "",
          "type": "uint8"
        }
      ],
      "stateMutability": "view",
      "type": "function",
      "constant": true
    },
    {
      "inputs": [],
      "name": "getRegisteredAirlinesCount",
      "outputs": [
        {
          "internalType": "uint8",
          "name": "",
          "type": "uint8"
        }
      ],
      "stateMutability": "view",
      "type": "function",
      "constant": true
    },
    {
      "inputs": [],
      "name": "getAirlinesList",
      "outputs": [
        {
          "internalType": "string[]",
          "name": "",
          "type": "string[]"
        }
      ],
      "stateMutability": "view",
      "type": "function",
      "constant": true
    },
    {
      "inputs": [
        {
          "internalType": "string",
          "name": "airline",
          "type": "string"
        }
      ],
      "name": "getAirlineDetails",
      "outputs": [
        {
          "components": [
            {
              "internalType": "address",
              "name": "owner",
              "type": "address"
            },
            {
              "internalType": "bool",
              "name": "registered",
              "type": "bool"
            },
            {
              "internalType": "string",
              "name": "name",
              "type": "string"
            },
            {
              "internalType": "bool",
              "name": "funded",
              "type": "bool"
            },
            {
              "internalType": "uint8",
              "name": "votes",
              "type": "uint8"
            },
            {
              "internalType": "uint8",
              "name": "requiredVotes",
              "type": "uint8"
            }
          ],
          "internalType": "struct FlightSuretyData.Airline",
          "name": "",
          "type": "tuple"
        }
      ],
      "stateMutability": "view",
      "type": "function",
      "constant": true
    },
    {
      "inputs": [
        {
          "internalType": "string",
          "name": "airline",
          "type": "string"
        },
        {
          "internalType": "address",
          "name": "user",
          "type": "address"
        }
      ],
      "name": "checkHasVoted",
      "outputs": [
        {
          "internalType": "bool",
          "name": "",
          "type": "bool"
        }
      ],
      "stateMutability": "view",
      "type": "function",
      "constant": true
    },
    {
      "inputs": [
        {
          "internalType": "address",
          "name": "owner",
          "type": "address"
        }
      ],
      "name": "checkIsFundedOwner",
      "outputs": [
        {
          "internalType": "bool",
          "name": "",
          "type": "bool"
        }
      ],
      "stateMutability": "view",
      "type": "function",
      "constant": true
    },
    {
      "inputs": [
        {
          "internalType": "bool",
          "name": "mode",
          "type": "bool"
        },
        {
          "internalType": "address",
          "name": "owner",
          "type": "address"
        }
      ],
      "name": "setOperatingStatus",
      "outputs": [],
      "stateMutability": "nonpayable",
      "type": "function"
    },
    {
      "inputs": [
        {
          "internalType": "string",
          "name": "airline",
          "type": "string"
        },
        {
          "components": [
            {
              "internalType": "address",
              "name": "owner",
              "type": "address"
            },
            {
              "internalType": "bool",
              "name": "registered",
              "type": "bool"
            },
            {
              "internalType": "string",
              "name": "name",
              "type": "string"
            },
            {
              "internalType": "bool",
              "name": "funded",
              "type": "bool"
            },
            {
              "internalType": "uint8",
              "name": "votes",
              "type": "uint8"
            },
            {
              "internalType": "uint8",
              "name": "requiredVotes",
              "type": "uint8"
            }
          ],
          "internalType": "struct FlightSuretyData.Airline",
          "name": "airlineDetails",
          "type": "tuple"
        },
        {
          "internalType": "address",
          "name": "user",
          "type": "address"
        },
        {
          "internalType": "bool",
          "name": "voted",
          "type": "bool"
        }
      ],
      "name": "updateAirline",
      "outputs": [],
      "stateMutability": "nonpayable",
      "type": "function"
    },
    {
      "inputs": [
        {
          "internalType": "string",
          "name": "flight",
          "type": "string"
        }
      ],
      "name": "registerFlight",
      "outputs": [],
      "stateMutability": "nonpayable",
      "type": "function"
    },
    {
      "inputs": [
        {
          "internalType": "string",
          "name": "flight",
          "type": "string"
        }
      ],
      "name": "getRegisteredFlight",
      "outputs": [
        {
          "components": [
            {
              "internalType": "string",
              "name": "flight",
              "type": "string"
            },
            {
              "internalType": "bool",
              "name": "registered",
              "type": "bool"
            },
            {
              "internalType": "bool",
              "name": "insured",
              "type": "bool"
            },
            {
              "components": [
                {
                  "internalType": "address",
                  "name": "user",
                  "type": "address"
                },
                {
                  "internalType": "uint256",
                  "name": "amount",
                  "type": "uint256"
                }
              ],
              "internalType": "struct FlightSuretyData.Insuree[]",
              "name": "insurees",
              "type": "tuple[]"
            },
            {
              "internalType": "uint8",
              "name": "statusCode",
              "type": "uint8"
            },
            {
              "internalType": "bool",
              "name": "statusChecked",
              "type": "bool"
            }
          ],
          "internalType": "struct FlightSuretyData.Flight",
          "name": "",
          "type": "tuple"
        }
      ],
      "stateMutability": "view",
      "type": "function",
      "constant": true
    },
    {
      "inputs": [
        {
          "internalType": "string",
          "name": "flight",
          "type": "string"
        },
        {
          "internalType": "uint8",
          "name": "statusCode",
          "type": "uint8"
        }
      ],
      "name": "updateFlightStatus",
      "outputs": [],
      "stateMutability": "nonpayable",
      "type": "function"
    },
    {
      "inputs": [
        {
          "internalType": "address",
          "name": "user",
          "type": "address"
        },
        {
          "internalType": "string",
          "name": "flight",
          "type": "string"
        }
      ],
      "name": "isAlreadyInsured",
      "outputs": [
        {
          "internalType": "bool",
          "name": "",
          "type": "bool"
        }
      ],
      "stateMutability": "view",
      "type": "function",
      "constant": true
    },
    {
      "inputs": [
        {
          "internalType": "string",
          "name": "flight",
          "type": "string"
        },
        {
          "internalType": "address",
          "name": "user",
          "type": "address"
        }
      ],
      "name": "buy",
      "outputs": [],
      "stateMutability": "payable",
      "type": "function",
      "payable": true
    },
    {
      "inputs": [
        {
          "internalType": "address",
          "name": "user",
          "type": "address"
        }
      ],
      "name": "pay",
      "outputs": [],
      "stateMutability": "payable",
      "type": "function",
      "payable": true
    },
    {
      "inputs": [
        {
          "internalType": "string",
          "name": "airline",
          "type": "string"
        },
        {
          "internalType": "address",
          "name": "owner",
          "type": "address"
        }
      ],
      "name": "fund",
      "outputs": [],
      "stateMutability": "payable",
      "type": "function",
      "payable": true
    },
    {
      "inputs": [],
      "name": "receiveFunds",
      "outputs": [],
      "stateMutability": "payable",
      "type": "function",
      "payable": true
    }
  ],
  "bytecode": "0x60806040526001600060146101000a81548160ff0219169083151502179055506000600860006101000a81548160ff021916908360ff1602179055506000600860016101000a81548160ff021916908360ff16021790555034801561006357600080fd5b50336000806101000a81548173ffffffffffffffffffffffffffffffffffffffff021916908373ffffffffffffffffffffffffffffffffffffffff160217905550612ed3806100b36000396000f3fe6080604052600436106101225760003560e01c8063ab866778116100a0578063e1158f4d11610064578063e1158f4d1461040b578063e1a3e55c14610434578063f53aa2e214610450578063f77890ea1461047b578063fc0615f0146104a657610160565b8063ab86677814610326578063c590dda51461034f578063c5a95cc214610378578063cd905dff146103b5578063db0a0d9d146103e057610160565b80633f8dd545116100e75780633f8dd5451461022d5780634a8e57b9146102565780634c8b42eb146102935780634f96838a146102be5780637677bb6f146102e957610160565b80625c33e1146101625780630c11dedd1461016c57806312065fe01461018857806335b71da9146101b35780633a74efa5146101f057610160565b36610160577fa8142743f8f70a4c26f3691cf4ed59718381fb2f18070ec52be1f1022d855557346040516101569190612a20565b60405180910390a1005b005b61016a6104c2565b005b61018660048036038101906101819190612079565b61050b565b005b34801561019457600080fd5b5061019d6106e9565b6040516101aa9190612a20565b60405180910390f35b3480156101bf57600080fd5b506101da60048036038101906101d5919061219c565b61073f565b6040516101e79190612901565b60405180910390f35b3480156101fc57600080fd5b506102176004803603810190610212919061215b565b610800565b60405161022491906129fe565b60405180910390f35b34801561023957600080fd5b50610254600480360381019061024f919061215b565b610a46565b005b34801561026257600080fd5b5061027d600480360381019061027891906120a2565b610b7d565b60405161028a9190612901565b60405180910390f35b34801561029f57600080fd5b506102a8610c45565b6040516102b591906128df565b60405180910390f35b3480156102ca57600080fd5b506102d3610d6d565b6040516102e09190612a3b565b60405180910390f35b3480156102f557600080fd5b50610310600480360381019061030b9190612079565b610d80565b60405161031d9190612901565b60405180910390f35b34801561033257600080fd5b5061034d600480360381019061034891906121f0565b610dd6565b005b34801561035b57600080fd5b506103766004803603810190610371919061211f565b611181565b005b34801561038457600080fd5b5061039f600480360381019061039a919061215b565b611267565b6040516103ac91906129dc565b60405180910390f35b3480156103c157600080fd5b506103ca611446565b6040516103d79190612901565b60405180910390f35b3480156103ec57600080fd5b506103f561145c565b6040516104029190612a3b565b60405180910390f35b34801561041757600080fd5b50610432600480360381019061042d9190612283565b611473565b005b61044e6004803603810190610449919061219c565b611693565b005b34801561045c57600080fd5b50610465611967565b6040516104729190612a3b565b60405180910390f35b34801561048757600080fd5b5061049061197a565b60405161049d9190612a3b565b60405180910390f35b6104c060048036038101906104bb919061219c565b6119df565b005b3073ffffffffffffffffffffffffffffffffffffffff166108fc349081150290604051600060405180830381858888f19350505050158015610508573d6000803e3d6000fd5b50565b600060149054906101000a900460ff1661055a576040517f08c379a00000000000000000000000000000000000000000000000000000000081526004016105519061299c565b60405180910390fd5b6000600360008373ffffffffffffffffffffffffffffffffffffffff1673ffffffffffffffffffffffffffffffffffffffff16815260200190815260200160002054116105dc576040517f08c379a00000000000000000000000000000000000000000000000000000000081526004016105d39061297c565b60405180910390fd5b6000600360008373ffffffffffffffffffffffffffffffffffffffff1673ffffffffffffffffffffffffffffffffffffffff1681526020019081526020016000205490506000600360008473ffffffffffffffffffffffffffffffffffffffff1673ffffffffffffffffffffffffffffffffffffffff168152602001908152602001600020819055508173ffffffffffffffffffffffffffffffffffffffff166108fc829081150290604051600060405180830381858888f193505050501580156106ab573d6000803e3d6000fd5b507f1a65428a5fca65670638119dac650952495292890061fd2fc891fcf2fa3ad5c382826040516106dd9291906128b6565b60405180910390a15050565b60008060149054906101000a900460ff16610739576040517f08c379a00000000000000000000000000000000000000000000000000000000081526004016107309061299c565b60405180910390fd5b47905090565b60008060149054906101000a900460ff1661078f576040517f08c379a00000000000000000000000000000000000000000000000000000000081526004016107869061299c565b60405180910390fd5b600160008373ffffffffffffffffffffffffffffffffffffffff1673ffffffffffffffffffffffffffffffffffffffff168152602001908152602001600020836040516107dc919061282b565b908152602001604051809103902060009054906101000a900460ff16905092915050565b610808611dd1565b600060149054906101000a900460ff16610857576040517f08c379a000000000000000000000000000000000000000000000000000000000815260040161084e9061299c565b60405180910390fd5b600282604051610867919061282b565b90815260200160405180910390206040518060c001604052908160008201805461089090612d10565b80601f01602080910402602001604051908101604052809291908181526020018280546108bc90612d10565b80156109095780601f106108de57610100808354040283529160200191610909565b820191906000526020600020905b8154815290600101906020018083116108ec57829003601f168201915b505050505081526020016001820160009054906101000a900460ff161515151581526020016001820160019054906101000a900460ff1615151515815260200160028201805480602002602001604051908101604052809291908181526020016000905b828210156109ff57838290600052602060002090600202016040518060400160405290816000820160009054906101000a900473ffffffffffffffffffffffffffffffffffffffff1673ffffffffffffffffffffffffffffffffffffffff1673ffffffffffffffffffffffffffffffffffffffff1681526020016001820154815250508152602001906001019061096d565b5050505081526020016003820160009054906101000a900460ff1660ff1660ff1681526020016003820160019054906101000a900460ff1615151515815250509050919050565b600060149054906101000a900460ff16610a95576040517f08c379a0000000000000000000000000000000000000000000000000000000008152600401610a8c9061299c565b60405180910390fd5b80600282604051610aa6919061282b565b90815260200160405180910390206000019080519060200190610aca929190611e10565b506001600282604051610add919061282b565b908152602001604051809103902060010160006101000a81548160ff0219169083151502179055506000600282604051610b17919061282b565b908152602001604051809103902060010160016101000a81548160ff021916908315150217905550600a600282604051610b51919061282b565b908152602001604051809103902060030160006101000a81548160ff021916908360ff16021790555050565b60008060149054906101000a900460ff16610bcd576040517f08c379a0000000000000000000000000000000000000000000000000000000008152600401610bc49061299c565b60405180910390fd5b6000600460008573ffffffffffffffffffffffffffffffffffffffff1673ffffffffffffffffffffffffffffffffffffffff16815260200190815260200160002083604051610c1c919061282b565b9081526020016040518091039020541115610c3a5760019050610c3f565b600090505b92915050565b6060600060149054906101000a900460ff16610c96576040517f08c379a0000000000000000000000000000000000000000000000000000000008152600401610c8d9061299c565b60405180910390fd5b6006805480602002602001604051908101604052809291908181526020016000905b82821015610d64578382906000526020600020018054610cd790612d10565b80601f0160208091040260200160405190810160405280929190818152602001828054610d0390612d10565b8015610d505780601f10610d2557610100808354040283529160200191610d50565b820191906000526020600020905b815481529060010190602001808311610d3357829003601f168201915b505050505081526020019060010190610cb8565b50505050905090565b600860009054906101000a900460ff1681565b6000600760008373ffffffffffffffffffffffffffffffffffffffff1673ffffffffffffffffffffffffffffffffffffffff16815260200190815260200160002060009054906101000a900460ff169050919050565b600060149054906101000a900460ff16610e25576040517f08c379a0000000000000000000000000000000000000000000000000000000008152600401610e1c9061299c565b60405180910390fd5b8015610f405760018060008473ffffffffffffffffffffffffffffffffffffffff1673ffffffffffffffffffffffffffffffffffffffff16815260200190815260200160002085604051610e79919061282b565b908152602001604051809103902060006101000a81548160ff0219169083151502179055507f8eb81cb806dbb3d8a2f94981614331a55dfd90e06a42fdc362ca3ca96981d92f82600160008573ffffffffffffffffffffffffffffffffffffffff1673ffffffffffffffffffffffffffffffffffffffff16815260200190815260200160002086604051610f0d919061282b565b908152602001604051809103902060009054906101000a900460ff16604051610f3792919061285d565b60405180910390a15b600073ffffffffffffffffffffffffffffffffffffffff16600585604051610f68919061282b565b908152602001604051809103902060000160009054906101000a900473ffffffffffffffffffffffffffffffffffffffff1673ffffffffffffffffffffffffffffffffffffffff161415610ff357600684908060018154018082558091505060019003906000526020600020016000909190919091509080519060200190610ff1929190611e10565b505b60001515600585604051611007919061282b565b908152602001604051809103902060000160149054906101000a900460ff161515148015611036575082602001515b15611073576001600860018282829054906101000a900460ff1661105a9190612bb7565b92506101000a81548160ff021916908360ff1602179055505b82600585604051611084919061282b565b908152602001604051809103902060008201518160000160006101000a81548173ffffffffffffffffffffffffffffffffffffffff021916908373ffffffffffffffffffffffffffffffffffffffff16021790555060208201518160000160146101000a81548160ff0219169083151502179055506040820151816001019080519060200190611115929190611e10565b5060608201518160020160006101000a81548160ff02191690831515021790555060808201518160020160016101000a81548160ff021916908360ff16021790555060a08201518160020160026101000a81548160ff021916908360ff16021790555090505050505050565b3073ffffffffffffffffffffffffffffffffffffffff16637677bb6f826040518263ffffffff1660e01b81526004016111ba9190612842565b60206040518083038186803b1580156111d257600080fd5b505afa1580156111e6573d6000803e3d6000fd5b505050506040513d601f19601f8201168201806040525081019061120a91906120f6565b611249576040517f08c379a00000000000000000000000000000000000000000000000000000000081526004016112409061291c565b60405180910390fd5b81600060146101000a81548160ff0219169083151502179055505050565b61126f611e96565b600060149054906101000a900460ff166112be576040517f08c379a00000000000000000000000000000000000000000000000000000000081526004016112b59061299c565b60405180910390fd5b6005826040516112ce919061282b565b90815260200160405180910390206040518060c00160405290816000820160009054906101000a900473ffffffffffffffffffffffffffffffffffffffff1673ffffffffffffffffffffffffffffffffffffffff1673ffffffffffffffffffffffffffffffffffffffff1681526020016000820160149054906101000a900460ff1615151515815260200160018201805461136890612d10565b80601f016020809104026020016040519081016040528092919081815260200182805461139490612d10565b80156113e15780601f106113b6576101008083540402835291602001916113e1565b820191906000526020600020905b8154815290600101906020018083116113c457829003601f168201915b505050505081526020016002820160009054906101000a900460ff161515151581526020016002820160019054906101000a900460ff1660ff1660ff1681526020016002820160029054906101000a900460ff1660ff1660ff16815250509050919050565b60008060149054906101000a900460ff16905090565b6000600860009054906101000a900460ff16905090565b600060149054906101000a900460ff166114c2576040517f08c379a00000000000000000000000000000000000000000000000000000000081526004016114b99061299c565b60405180910390fd5b60146002836040516114d4919061282b565b908152602001604051809103902060030160009054906101000a900460ff1660ff161415611537576040517f08c379a000000000000000000000000000000000000000000000000000000000815260040161152e9061295c565b60405180910390fd5b80600283604051611548919061282b565b908152602001604051809103902060030160006101000a81548160ff021916908360ff1602179055506001600283604051611583919061282b565b908152602001604051809103902060030160016101000a81548160ff02191690831515021790555060148160ff16141561168f5760005b6002836040516115ca919061282b565b90815260200160405180910390206002018054905081101561168d5761167a836002856040516115fa919061282b565b90815260200160405180910390206002018381548110611643577f4e487b7100000000000000000000000000000000000000000000000000000000600052603260045260246000fd5b906000526020600020906002020160000160009054906101000a900473ffffffffffffffffffffffffffffffffffffffff16611b9c565b808061168590612d42565b9150506115ba565b505b5050565b600060149054906101000a900460ff166116e2576040517f08c379a00000000000000000000000000000000000000000000000000000000081526004016116d99061299c565b60405180910390fd5b600115153073ffffffffffffffffffffffffffffffffffffffff16634a8e57b983856040518363ffffffff1660e01b8152600401611721929190612886565b60206040518083038186803b15801561173957600080fd5b505afa15801561174d573d6000803e3d6000fd5b505050506040513d601f19601f8201168201806040525081019061177191906120f6565b151514156117b4576040517f08c379a00000000000000000000000000000000000000000000000000000000081526004016117ab906129bc565b60405180910390fd5b34600460008373ffffffffffffffffffffffffffffffffffffffff1673ffffffffffffffffffffffffffffffffffffffff16815260200190815260200160002083604051611802919061282b565b908152602001604051809103902081905550600060405180604001604052808373ffffffffffffffffffffffffffffffffffffffff1681526020013481525090506001600284604051611855919061282b565b908152602001604051809103902060010160016101000a81548160ff02191690831515021790555060028360405161188d919061282b565b908152602001604051809103902060020181908060018154018082558091505060019003906000526020600020906002020160009091909190915060008201518160000160006101000a81548173ffffffffffffffffffffffffffffffffffffffff021916908373ffffffffffffffffffffffffffffffffffffffff1602179055506020820151816001015550503073ffffffffffffffffffffffffffffffffffffffff166108fc349081150290604051600060405180830381858888f19350505050158015611961573d6000803e3d6000fd5b50505050565b600860019054906101000a900460ff1681565b60008060149054906101000a900460ff166119ca576040517f08c379a00000000000000000000000000000000000000000000000000000000081526004016119c19061299c565b60405180910390fd5b600860019054906101000a900460ff16905090565b600060149054906101000a900460ff16611a2e576040517f08c379a0000000000000000000000000000000000000000000000000000000008152600401611a259061299c565b60405180910390fd5b60001515600760008373ffffffffffffffffffffffffffffffffffffffff1673ffffffffffffffffffffffffffffffffffffffff16815260200190815260200160002060009054906101000a900460ff1615151415611b17576001600760008373ffffffffffffffffffffffffffffffffffffffff1673ffffffffffffffffffffffffffffffffffffffff16815260200190815260200160002060006101000a81548160ff0219169083151502179055506001600860008282829054906101000a900460ff16611afe9190612bb7565b92506101000a81548160ff021916908360ff1602179055505b6001600583604051611b29919061282b565b908152602001604051809103902060020160006101000a81548160ff0219169083151502179055503073ffffffffffffffffffffffffffffffffffffffff166108fc349081150290604051600060405180830381858888f19350505050158015611b97573d6000803e3d6000fd5b505050565b600060149054906101000a900460ff16611beb576040517f08c379a0000000000000000000000000000000000000000000000000000000008152600401611be29061299c565b60405180910390fd5b3073ffffffffffffffffffffffffffffffffffffffff16634a8e57b982846040518363ffffffff1660e01b8152600401611c26929190612886565b60206040518083038186803b158015611c3e57600080fd5b505afa158015611c52573d6000803e3d6000fd5b505050506040513d601f19601f82011682018060405250810190611c7691906120f6565b611cb5576040517f08c379a0000000000000000000000000000000000000000000000000000000008152600401611cac9061293c565b60405180910390fd5b6000600460008373ffffffffffffffffffffffffffffffffffffffff1673ffffffffffffffffffffffffffffffffffffffff16815260200190815260200160002083604051611d04919061282b565b908152602001604051809103902054905060006064603283611d269190612c1f565b611d309190612bee565b82611d3b9190612b61565b905080600360008573ffffffffffffffffffffffffffffffffffffffff1673ffffffffffffffffffffffffffffffffffffffff16815260200190815260200160002054611d889190612b61565b600360008573ffffffffffffffffffffffffffffffffffffffff1673ffffffffffffffffffffffffffffffffffffffff1681526020019081526020016000208190555050505050565b6040518060c001604052806060815260200160001515815260200160001515815260200160608152602001600060ff1681526020016000151581525090565b828054611e1c90612d10565b90600052602060002090601f016020900481019282611e3e5760008555611e85565b82601f10611e5757805160ff1916838001178555611e85565b82800160010185558215611e85579182015b82811115611e84578251825591602001919060010190611e69565b5b509050611e929190611eec565b5090565b6040518060c00160405280600073ffffffffffffffffffffffffffffffffffffffff16815260200160001515815260200160608152602001600015158152602001600060ff168152602001600060ff1681525090565b5b80821115611f05576000816000905550600101611eed565b5090565b6000611f1c611f1784612a87565b612a56565b905082815260208101848484011115611f3457600080fd5b611f3f848285612cce565b509392505050565b600081359050611f5681612e58565b92915050565b600081359050611f6b81612e6f565b92915050565b600081519050611f8081612e6f565b92915050565b600082601f830112611f9757600080fd5b8135611fa7848260208601611f09565b91505092915050565b600060c08284031215611fc257600080fd5b611fcc60c0612a56565b90506000611fdc84828501611f47565b6000830152506020611ff084828501611f5c565b602083015250604082013567ffffffffffffffff81111561201057600080fd5b61201c84828501611f86565b604083015250606061203084828501611f5c565b606083015250608061204484828501612064565b60808301525060a061205884828501612064565b60a08301525092915050565b60008135905061207381612e86565b92915050565b60006020828403121561208b57600080fd5b600061209984828501611f47565b91505092915050565b600080604083850312156120b557600080fd5b60006120c385828601611f47565b925050602083013567ffffffffffffffff8111156120e057600080fd5b6120ec85828601611f86565b9150509250929050565b60006020828403121561210857600080fd5b600061211684828501611f71565b91505092915050565b6000806040838503121561213257600080fd5b600061214085828601611f5c565b925050602061215185828601611f47565b9150509250929050565b60006020828403121561216d57600080fd5b600082013567ffffffffffffffff81111561218757600080fd5b61219384828501611f86565b91505092915050565b600080604083850312156121af57600080fd5b600083013567ffffffffffffffff8111156121c957600080fd5b6121d585828601611f86565b92505060206121e685828601611f47565b9150509250929050565b6000806000806080858703121561220657600080fd5b600085013567ffffffffffffffff81111561222057600080fd5b61222c87828801611f86565b945050602085013567ffffffffffffffff81111561224957600080fd5b61225587828801611fb0565b935050604061226687828801611f47565b925050606061227787828801611f5c565b91505092959194509250565b6000806040838503121561229657600080fd5b600083013567ffffffffffffffff8111156122b057600080fd5b6122bc85828601611f86565b92505060206122cd85828601612064565b9150509250929050565b60006122e38383612412565b905092915050565b60006122f783836127c0565b60408301905092915050565b61230c81612c79565b82525050565b61231b81612c79565b82525050565b600061232c82612ad7565b6123368185612b12565b93508360208202850161234885612ab7565b8060005b85811015612384578484038952815161236585826122d7565b945061237083612af8565b925060208a0199505060018101905061234c565b50829750879550505050505092915050565b60006123a182612ae2565b6123ab8185612b23565b93506123b683612ac7565b8060005b838110156123e75781516123ce88826122eb565b97506123d983612b05565b9250506001810190506123ba565b5085935050505092915050565b6123fd81612c8b565b82525050565b61240c81612c8b565b82525050565b600061241d82612aed565b6124278185612b34565b9350612437818560208601612cdd565b61244081612e47565b840191505092915050565b600061245682612aed565b6124608185612b45565b9350612470818560208601612cdd565b61247981612e47565b840191505092915050565b600061248f82612aed565b6124998185612b56565b93506124a9818560208601612cdd565b80840191505092915050565b60006124c2601383612b45565b91507f4e6f7420612066756e646564206f776e657221000000000000000000000000006000830152602082019050919050565b6000612502602583612b45565b91507f4e6f742061637475616c6c7920696e737572656420666f72207468697320666c60008301527f69676874210000000000000000000000000000000000000000000000000000006020830152604082019050919050565b6000612568603283612b45565b91507f43616e27742075706461746520696620616c72656164792064657369676e617460008301527f6564206173204c617465204169726c696e6500000000000000000000000000006020830152604082019050919050565b60006125ce601983612b45565b91507f596f7520646f6e2774206861766520616e7920637265646974000000000000006000830152602082019050919050565b600061260e602583612b45565b91507f436f6e74726163742069732063757272656e746c79206e6f74206f706572617460008301527f696f6e616c0000000000000000000000000000000000000000000000000000006020830152604082019050919050565b6000612674601b83612b45565b91507f43616e277420696e73757265206d6f7265207468616e206f6e636500000000006000830152602082019050919050565b600060c0830160008301516126bf6000860182612303565b5060208301516126d260208601826123f4565b50604083015184820360408601526126ea8282612412565b91505060608301516126ff60608601826123f4565b506080830151612712608086018261280d565b5060a083015161272560a086018261280d565b508091505092915050565b600060c083016000830151848203600086015261274d8282612412565b915050602083015161276260208601826123f4565b50604083015161277560408601826123f4565b506060830151848203606086015261278d8282612396565b91505060808301516127a2608086018261280d565b5060a08301516127b560a08601826123f4565b508091505092915050565b6040820160008201516127d66000850182612303565b5060208201516127e960208501826127ef565b50505050565b6127f881612cb7565b82525050565b61280781612cb7565b82525050565b61281681612cc1565b82525050565b61282581612cc1565b82525050565b60006128378284612484565b915081905092915050565b60006020820190506128576000830184612312565b92915050565b60006040820190506128726000830185612312565b61287f6020830184612403565b9392505050565b600060408201905061289b6000830185612312565b81810360208301526128ad818461244b565b90509392505050565b60006040820190506128cb6000830185612312565b6128d860208301846127fe565b9392505050565b600060208201905081810360008301526128f98184612321565b905092915050565b60006020820190506129166000830184612403565b92915050565b60006020820190508181036000830152612935816124b5565b9050919050565b60006020820190508181036000830152612955816124f5565b9050919050565b600060208201905081810360008301526129758161255b565b9050919050565b60006020820190508181036000830152612995816125c1565b9050919050565b600060208201905081810360008301526129b581612601565b9050919050565b600060208201905081810360008301526129d581612667565b9050919050565b600060208201905081810360008301526129f681846126a7565b905092915050565b60006020820190508181036000830152612a188184612730565b905092915050565b6000602082019050612a3560008301846127fe565b92915050565b6000602082019050612a50600083018461281c565b92915050565b6000604051905081810181811067ffffffffffffffff82111715612a7d57612a7c612e18565b5b8060405250919050565b600067ffffffffffffffff821115612aa257612aa1612e18565b5b601f19601f8301169050602081019050919050565b6000819050602082019050919050565b6000819050602082019050919050565b600081519050919050565b600081519050919050565b600081519050919050565b6000602082019050919050565b6000602082019050919050565b600082825260208201905092915050565b600082825260208201905092915050565b600082825260208201905092915050565b600082825260208201905092915050565b600081905092915050565b6000612b6c82612cb7565b9150612b7783612cb7565b9250827fffffffffffffffffffffffffffffffffffffffffffffffffffffffffffffffff03821115612bac57612bab612d8b565b5b828201905092915050565b6000612bc282612cc1565b9150612bcd83612cc1565b92508260ff03821115612be357612be2612d8b565b5b828201905092915050565b6000612bf982612cb7565b9150612c0483612cb7565b925082612c1457612c13612dba565b5b828204905092915050565b6000612c2a82612cb7565b9150612c3583612cb7565b9250817fffffffffffffffffffffffffffffffffffffffffffffffffffffffffffffffff0483118215151615612c6e57612c6d612d8b565b5b828202905092915050565b6000612c8482612c97565b9050919050565b60008115159050919050565b600073ffffffffffffffffffffffffffffffffffffffff82169050919050565b6000819050919050565b600060ff82169050919050565b82818337600083830152505050565b60005b83811015612cfb578082015181840152602081019050612ce0565b83811115612d0a576000848401525b50505050565b60006002820490506001821680612d2857607f821691505b60208210811415612d3c57612d3b612de9565b5b50919050565b6000612d4d82612cb7565b91507fffffffffffffffffffffffffffffffffffffffffffffffffffffffffffffffff821415612d8057612d7f612d8b565b5b600182019050919050565b7f4e487b7100000000000000000000000000000000000000000000000000000000600052601160045260246000fd5b7f4e487b7100000000000000000000000000000000000000000000000000000000600052601260045260246000fd5b7f4e487b7100000000000000000000000000000000000000000000000000000000600052602260045260246000fd5b7f4e487b7100000000000000000000000000000000000000000000000000000000600052604160045260246000fd5b6000601f19601f8301169050919050565b612e6181612c79565b8114612e6c57600080fd5b50565b612e7881612c8b565b8114612e8357600080fd5b50565b612e8f81612cc1565b8114612e9a57600080fd5b5056fea2646970667358221220cf36e2fa7862a7bc9383d3ed7a11e3b0f06c506b5523d5c403d4361cba94622664736f6c63430008000033",
  "immutableReferences": {},
  "source": "// SPDX-License-Identifier: MIT\npragma solidity ^0.8.0;\n\nimport \"../node_modules/@openzeppelin/contracts/utils/math/SafeMath.sol\";\ncontract FlightSuretyData {\n    using SafeMath for uint256;\n\n    /********************************************************************************************/\n    /*                                       DATA VARIABLES                                     */\n    /********************************************************************************************/\n\n    address private contractOwner;                                      // Account used to deploy contract\n    bool private operational = true;\n\n    struct Airline {\n        address owner;\n        bool registered;\n        string name;\n        bool funded;\n        uint8 votes;\n        uint8 requiredVotes;\n    }\n\n    struct Insuree {\n        address user;\n        uint256 amount;\n    }\n\n    struct Flight {\n        string flight;\n        bool registered;\n        bool insured;\n        Insuree[] insurees;\n        uint8 statusCode;\n        bool statusChecked;\n    }\n   \n    mapping (address => mapping(string => bool)) private registrationVotes;\n    mapping (string => Flight) private registeredFlights;\n    mapping(address => uint) credits;\n    mapping(address => mapping(string => uint)) insurees;\n    mapping (string => Airline) private airlines;\n    string[] private airlineNames;\n    mapping(address => bool) airlineOwners;\n    uint8 public airlineOwnersCount = 0;\n    uint8 public registeredAirlinesCount = 0;\n\n    /********************************************************************************************/\n    /*                                       EVENT DEFINITIONS                                  */\n    /********************************************************************************************/\n\n    event Received(uint256 amount);\n    event CreditPaid(address user, uint credit);\n    event Voted(address user, bool vote);\n\n    /**\n    * @dev Constructor\n    *      The deploying account becomes contractOwner\n    */\n    constructor\n                                (\n                                ) \n    {\n        contractOwner = msg.sender;\n    }\n\n    /********************************************************************************************/\n    /*                                       FUNCTION MODIFIERS                                 */\n    /********************************************************************************************/\n\n    // Modifiers help avoid duplication of code. They are typically used to validate something\n    // before a function is allowed to be executed.\n\n    /**\n    * @dev Modifier that requires the \"operational\" boolean variable to be \"true\"\n    *      This is used on all state changing functions to pause the contract in \n    *      the event there is an issue that needs to be fixed\n    */\n    modifier requireIsOperational() \n    {\n        require(operational, \"Contract is currently not operational\");\n        _;  // All modifiers require an \"_\" which indicates where the function body will be added\n    }\n\n    /**\n    * @dev Modifier that requires the \"ContractOwner\" account to be the function caller\n    */\n    modifier requireContractOwner(address owner)\n    {\n        require(owner == contractOwner, \"Caller is not contract owner\");\n        _;\n    }\n\n    /********************************************************************************************/\n    /*                                       UTILITY FUNCTIONS                                  */\n    /********************************************************************************************/\n\n    /**\n    * @dev Get operating status of contract\n    *\n    * @return A bool that is the current operating status\n    */      \n    function isOperational() \n                            public \n                            view \n                            returns(bool) \n    {\n        return operational;\n    }\n\n    function getBalance() public view requireIsOperational returns(uint256){\n        return address(this).balance;\n    }\n\n    function getAirlineOwnersCount() public view returns(uint8){\n        return airlineOwnersCount;\n    }\n\n    function getRegisteredAirlinesCount() public view requireIsOperational returns(uint8){\n        return registeredAirlinesCount;\n    }\n\n    function getAirlinesList() external view requireIsOperational returns(string[] memory){\n        return airlineNames;\n    }\n    \n    function getAirlineDetails(string memory airline) external view requireIsOperational returns(Airline memory){\n        return airlines[airline];\n    }\n\n    function checkHasVoted(string memory airline, address user) external view requireIsOperational returns (bool) {\n        return registrationVotes[user][airline];\n    }\n\n    function checkIsFundedOwner(address owner) external view returns (bool){\n        return airlineOwners[owner];\n    }\n\n    /**\n    * @dev Sets contract operations on/off\n    *\n    * When operational mode is disabled, all write transactions except for this one will fail\n    */    \n    function setOperatingStatus\n                            (\n                                bool mode,\n                                address owner\n                            ) \n                            external\n    {   require(this.checkIsFundedOwner(owner), \"Not a funded owner!\");\n        operational = mode;\n    }\n\n    /********************************************************************************************/\n    /*                                     SMART CONTRACT FUNCTIONS                             */\n    /********************************************************************************************/\n\n   /**\n    * @dev Add an airline to the registration queue\n    *      Can only be called from FlightSuretyApp contract\n    *\n    */   \n\n    function updateAirline\n                            (\n                                string memory airline,\n                                Airline memory airlineDetails,\n                                address user,\n                                bool voted\n                            )\n                            external\n                            requireIsOperational\n    {\n        if(voted){\n            registrationVotes[user][airline] = true;\n            emit Voted(user, registrationVotes[user][airline]);\n        }\n\n        if(airlines[airline].owner == address(0)){\n            airlineNames.push(airline);\n        }\n\n        if(airlines[airline].registered == false && airlineDetails.registered){\n            registeredAirlinesCount += 1;\n        }\n\n        airlines[airline] = airlineDetails;\n    }\n\n    function registerFlight (string memory flight) external requireIsOperational {\n        registeredFlights[flight].flight = flight;\n        registeredFlights[flight].registered = true;\n        registeredFlights[flight].insured = false;\n        registeredFlights[flight].statusCode = 10;\n    }\n    \n    function getRegisteredFlight (string memory flight) external view requireIsOperational returns (Flight memory){\n        return registeredFlights[flight];\n    }\n\n    function updateFlightStatus(string memory flight, uint8 statusCode) public requireIsOperational {\n        require(registeredFlights[flight].statusCode != 20, \"Can't update if already designated as Late Airline\");\n        registeredFlights[flight].statusCode = statusCode;\n        registeredFlights[flight].statusChecked = true;\n        \n        if(statusCode == 20){\n            for(uint i = 0; i < registeredFlights[flight].insurees.length; i++) {\n                creditInsurees(flight, registeredFlights[flight].insurees[i].user);\n            }\n        }\n    }\n\n    function isAlreadyInsured(address user, string memory flight) external view requireIsOperational returns (bool) {\n        if (insurees[user][flight] > 0){\n            return true;\n        } else {\n            return false;\n        }\n    }\n\n\n   /**\n    * @dev Buy insurance for a flight\n    *\n    */   \n    function buy\n                            (      \n                                string memory flight,\n                                address user                     \n                            )\n                            external\n                            payable\n                            requireIsOperational\n    {\n        require(this.isAlreadyInsured(user, flight) != true, \"Can't insure more than once\");\n        insurees[user][flight] = msg.value;\n        Insuree memory newInsuree = Insuree(user, msg.value);\n        registeredFlights[flight].insured = true;\n        registeredFlights[flight].insurees.push(newInsuree);\n        payable(address(this)).transfer(msg.value);\n    }\n\n    /**\n     *  @dev Credits payouts to insurees\n    */\n    function creditInsurees\n                                (\n                                    string memory flight,\n                                    address user\n\n                                )\n                                internal\n                                requireIsOperational\n                                \n    {\n        require(this.isAlreadyInsured(user, flight), \"Not actually insured for this flight!\");\n        uint paid = insurees[user][flight];\n        uint credit = paid + (paid * 50 / 100);\n        credits[user] = credits[user] + credit;\n    }\n    \n\n    /**\n     *  @dev Transfers eligible payout funds to insuree\n     *\n    */\n    function pay\n                            (\n                                address user\n                            )\n                            external\n                            payable\n                            requireIsOperational\n                            \n    {\n        require(credits[user] > 0, \"You don't have any credit\");\n        uint amountOfCredit = credits[user];\n        credits[user] = 0;\n        payable(user).transfer(amountOfCredit);\n        emit CreditPaid(user, amountOfCredit);\n    }\n\n   /**\n    * @dev Initial funding for the insurance. Unless there are too many delayed flights\n    *      resulting in insurance payouts, the contract should be self-sustaining\n    *\n    */   \n    function fund\n                            (   \n                                string memory airline,\n                                address owner\n                            )\n                            public\n                            requireIsOperational\n                            payable\n    {\n        if(airlineOwners[owner] == false){\n            airlineOwners[owner] = true;\n            airlineOwnersCount += 1;\n        }\n        airlines[airline].funded = true;\n        payable(address(this)).transfer(msg.value);\n    }\n\n    function getFlightKey\n                        (\n                            address airline,\n                            string memory flight,\n                            uint256 timestamp\n                        )\n                        pure\n                        internal\n                        returns(bytes32) \n    {\n        return keccak256(abi.encodePacked(airline, flight, timestamp));\n    }\n\n    /**\n    * @dev Fallback function for funding smart contract.\n    *\n    */\n\n    function receiveFunds() payable external {\n        payable(address(this)).transfer(msg.value);\n    }\n\n    receive() external payable {\n        emit Received(msg.value);\n    }\n\n    // Fallback\n    fallback() \n                            external \n                            payable \n    {\n    }\n\n\n}\n\n",
  "sourcePath": "/home/richardmands/_cinderhouse/crypto/flightSurety/contracts/FlightSuretyData.sol",
  "compiler": {
    "name": "solc",
    "version": "0.8.0+commit.c7dfd78e.Emscripten.clang"
  },
  "schemaVersion": "3.4.3",
  "updatedAt": "2021-09-02T11:28:03.034Z",
  "networkType": "ethereum",
  "devdoc": {
    "kind": "dev",
    "methods": {
      "buy(string,address)": {
        "details": "Buy insurance for a flight"
      },
      "constructor": {
        "details": "Constructor      The deploying account becomes contractOwner"
      },
      "fund(string,address)": {
        "details": "Initial funding for the insurance. Unless there are too many delayed flights      resulting in insurance payouts, the contract should be self-sustaining"
      },
      "isOperational()": {
        "details": "Get operating status of contract",
        "returns": {
          "_0": "A bool that is the current operating status"
        }
      },
      "pay(address)": {
        "details": "Transfers eligible payout funds to insuree"
      },
      "receiveFunds()": {
        "details": "Fallback function for funding smart contract."
      },
      "setOperatingStatus(bool,address)": {
        "details": "Sets contract operations on/off When operational mode is disabled, all write transactions except for this one will fail"
      },
      "updateAirline(string,(address,bool,string,bool,uint8,uint8),address,bool)": {
        "details": "Add an airline to the registration queue      Can only be called from FlightSuretyApp contract"
      }
    },
    "version": 1
  },
  "userdoc": {
    "kind": "user",
    "methods": {},
    "version": 1
  }
}