{
  "contractName": "FlightSuretyApp",
  "abi": [
    {
      "inputs": [
        {
          "internalType": "address",
          "name": "dataContractAddress",
          "type": "address"
        },
        {
          "internalType": "string",
          "name": "airlineName",
          "type": "string"
        }
      ],
      "stateMutability": "nonpayable",
      "type": "constructor"
    },
    {
      "anonymous": false,
      "inputs": [
        {
          "indexed": false,
          "internalType": "string",
          "name": "flight",
          "type": "string"
        },
        {
          "indexed": false,
          "internalType": "uint8",
          "name": "status",
          "type": "uint8"
        }
      ],
      "name": "FlightStatusInfo",
      "type": "event"
    },
    {
      "anonymous": false,
      "inputs": [
        {
          "indexed": false,
          "internalType": "string",
          "name": "airline",
          "type": "string"
        }
      ],
      "name": "FundAirline",
      "type": "event"
    },
    {
      "anonymous": false,
      "inputs": [
        {
          "indexed": false,
          "internalType": "string",
          "name": "airline",
          "type": "string"
        }
      ],
      "name": "InsureFlight",
      "type": "event"
    },
    {
      "anonymous": false,
      "inputs": [
        {
          "indexed": false,
          "internalType": "bool",
          "name": "status",
          "type": "bool"
        }
      ],
      "name": "OperationStatusChange",
      "type": "event"
    },
    {
      "anonymous": false,
      "inputs": [
        {
          "indexed": false,
          "internalType": "string",
          "name": "flight",
          "type": "string"
        },
        {
          "indexed": false,
          "internalType": "uint8",
          "name": "status",
          "type": "uint8"
        }
      ],
      "name": "OracleReport",
      "type": "event"
    },
    {
      "anonymous": false,
      "inputs": [
        {
          "indexed": false,
          "internalType": "uint8",
          "name": "index",
          "type": "uint8"
        },
        {
          "indexed": false,
          "internalType": "string",
          "name": "flight",
          "type": "string"
        }
      ],
      "name": "OracleRequest",
      "type": "event"
    },
    {
      "anonymous": false,
      "inputs": [
        {
          "indexed": false,
          "internalType": "string",
          "name": "airline",
          "type": "string"
        }
      ],
      "name": "RegisterAirline",
      "type": "event"
    },
    {
      "anonymous": false,
      "inputs": [
        {
          "indexed": false,
          "internalType": "string",
          "name": "airline",
          "type": "string"
        }
      ],
      "name": "RegisterFlight",
      "type": "event"
    },
    {
      "inputs": [],
      "name": "AIRLINE_FUNDING_MINIMUM",
      "outputs": [
        {
          "internalType": "uint256",
          "name": "",
          "type": "uint256"
        }
      ],
      "stateMutability": "view",
      "type": "function",
      "constant": true
    },
    {
      "inputs": [],
      "name": "FLIGHT_INSURANCE_MAXIMUM",
      "outputs": [
        {
          "internalType": "uint256",
          "name": "",
          "type": "uint256"
        }
      ],
      "stateMutability": "view",
      "type": "function",
      "constant": true
    },
    {
      "inputs": [],
      "name": "REGISTRATION_FEE",
      "outputs": [
        {
          "internalType": "uint256",
          "name": "",
          "type": "uint256"
        }
      ],
      "stateMutability": "view",
      "type": "function",
      "constant": true
    },
    {
      "inputs": [],
      "name": "dataAddress",
      "outputs": [
        {
          "internalType": "address",
          "name": "",
          "type": "address"
        }
      ],
      "stateMutability": "view",
      "type": "function",
      "constant": true
    },
    {
      "inputs": [],
      "name": "requiredVotesForStatusChange",
      "outputs": [
        {
          "internalType": "uint8",
          "name": "",
          "type": "uint8"
        }
      ],
      "stateMutability": "view",
      "type": "function",
      "constant": true
    },
    {
      "inputs": [],
      "name": "isOperational",
      "outputs": [
        {
          "internalType": "bool",
          "name": "",
          "type": "bool"
        }
      ],
      "stateMutability": "view",
      "type": "function",
      "constant": true
    },
    {
      "inputs": [
        {
          "internalType": "bool",
          "name": "updatedState",
          "type": "bool"
        }
      ],
      "name": "setIsOperational",
      "outputs": [],
      "stateMutability": "nonpayable",
      "type": "function"
    },
    {
      "inputs": [],
      "name": "getBalance",
      "outputs": [
        {
          "internalType": "uint256",
          "name": "",
          "type": "uint256"
        }
      ],
      "stateMutability": "view",
      "type": "function",
      "constant": true
    },
    {
      "inputs": [],
      "name": "getAirlinesList",
      "outputs": [
        {
          "internalType": "string[]",
          "name": "",
          "type": "string[]"
        }
      ],
      "stateMutability": "view",
      "type": "function",
      "constant": true
    },
    {
      "inputs": [],
      "name": "getRegisteredAirlinesCount",
      "outputs": [
        {
          "internalType": "uint8",
          "name": "",
          "type": "uint8"
        }
      ],
      "stateMutability": "view",
      "type": "function",
      "constant": true
    },
    {
      "inputs": [],
      "name": "getAirlineOwnersCount",
      "outputs": [
        {
          "internalType": "uint8",
          "name": "",
          "type": "uint8"
        }
      ],
      "stateMutability": "view",
      "type": "function",
      "constant": true
    },
    {
      "inputs": [
        {
          "internalType": "string",
          "name": "airline",
          "type": "string"
        }
      ],
      "name": "getAirlineDetails",
      "outputs": [
        {
          "components": [
            {
              "internalType": "address",
              "name": "owner",
              "type": "address"
            },
            {
              "internalType": "bool",
              "name": "registered",
              "type": "bool"
            },
            {
              "internalType": "string",
              "name": "name",
              "type": "string"
            },
            {
              "internalType": "bool",
              "name": "funded",
              "type": "bool"
            },
            {
              "internalType": "uint8",
              "name": "votes",
              "type": "uint8"
            },
            {
              "internalType": "uint8",
              "name": "requiredVotes",
              "type": "uint8"
            }
          ],
          "internalType": "struct FlightSuretyData.Airline",
          "name": "airlineDetails",
          "type": "tuple"
        }
      ],
      "stateMutability": "view",
      "type": "function",
      "constant": true
    },
    {
      "inputs": [
        {
          "internalType": "string",
          "name": "airline",
          "type": "string"
        },
        {
          "internalType": "address",
          "name": "owner",
          "type": "address"
        }
      ],
      "name": "registerAirline",
      "outputs": [],
      "stateMutability": "nonpayable",
      "type": "function"
    },
    {
      "inputs": [
        {
          "internalType": "string",
          "name": "airline",
          "type": "string"
        }
      ],
      "name": "checkHasVoted",
      "outputs": [
        {
          "internalType": "bool",
          "name": "",
          "type": "bool"
        }
      ],
      "stateMutability": "view",
      "type": "function",
      "constant": true
    },
    {
      "inputs": [
        {
          "internalType": "string",
          "name": "airline",
          "type": "string"
        }
      ],
      "name": "approveAirline",
      "outputs": [],
      "stateMutability": "nonpayable",
      "type": "function"
    },
    {
      "inputs": [
        {
          "internalType": "string",
          "name": "airline",
          "type": "string"
        }
      ],
      "name": "fundAirline",
      "outputs": [],
      "stateMutability": "payable",
      "type": "function",
      "payable": true
    },
    {
      "inputs": [
        {
          "internalType": "string",
          "name": "flight",
          "type": "string"
        }
      ],
      "name": "getRegisteredFlight",
      "outputs": [
        {
          "components": [
            {
              "internalType": "string",
              "name": "flight",
              "type": "string"
            },
            {
              "internalType": "bool",
              "name": "registered",
              "type": "bool"
            },
            {
              "internalType": "bool",
              "name": "insured",
              "type": "bool"
            },
            {
              "components": [
                {
                  "internalType": "address",
                  "name": "user",
                  "type": "address"
                },
                {
                  "internalType": "uint256",
                  "name": "amount",
                  "type": "uint256"
                }
              ],
              "internalType": "struct FlightSuretyData.Insuree[]",
              "name": "insurees",
              "type": "tuple[]"
            },
            {
              "internalType": "uint8",
              "name": "statusCode",
              "type": "uint8"
            },
            {
              "internalType": "bool",
              "name": "statusChecked",
              "type": "bool"
            }
          ],
          "internalType": "struct FlightSuretyData.Flight",
          "name": "flightData",
          "type": "tuple"
        }
      ],
      "stateMutability": "view",
      "type": "function",
      "constant": true
    },
    {
      "inputs": [
        {
          "internalType": "string",
          "name": "flight",
          "type": "string"
        }
      ],
      "name": "registerFlight",
      "outputs": [],
      "stateMutability": "nonpayable",
      "type": "function"
    },
    {
      "inputs": [
        {
          "internalType": "string",
          "name": "flight",
          "type": "string"
        }
      ],
      "name": "buyInsurance",
      "outputs": [],
      "stateMutability": "payable",
      "type": "function",
      "payable": true
    },
    {
      "inputs": [],
      "name": "getRefund",
      "outputs": [],
      "stateMutability": "payable",
      "type": "function",
      "payable": true
    },
    {
      "inputs": [
        {
          "internalType": "string",
          "name": "flight",
          "type": "string"
        }
      ],
      "name": "fetchFlightStatus",
      "outputs": [],
      "stateMutability": "nonpayable",
      "type": "function"
    },
    {
      "inputs": [],
      "name": "registerOracle",
      "outputs": [],
      "stateMutability": "payable",
      "type": "function",
      "payable": true
    },
    {
      "inputs": [],
      "name": "getOracle",
      "outputs": [
        {
          "components": [
            {
              "internalType": "bool",
              "name": "isRegistered",
              "type": "bool"
            },
            {
              "internalType": "uint8[3]",
              "name": "indexes",
              "type": "uint8[3]"
            }
          ],
          "internalType": "struct FlightSuretyApp.Oracle",
          "name": "",
          "type": "tuple"
        }
      ],
      "stateMutability": "view",
      "type": "function",
      "constant": true
    },
    {
      "inputs": [],
      "name": "getMyIndexes",
      "outputs": [
        {
          "internalType": "uint8[3]",
          "name": "",
          "type": "uint8[3]"
        }
      ],
      "stateMutability": "view",
      "type": "function",
      "constant": true
    },
    {
      "inputs": [
        {
          "internalType": "uint8",
          "name": "index",
          "type": "uint8"
        },
        {
          "internalType": "string",
          "name": "flight",
          "type": "string"
        },
        {
          "internalType": "uint8",
          "name": "statusCode",
          "type": "uint8"
        }
      ],
      "name": "submitOracleResponse",
      "outputs": [],
      "stateMutability": "nonpayable",
      "type": "function"
    }
  ],
  "bytecode": "0x60806040526000600560026101000a81548160ff021916908360ff1602179055503480156200002d57600080fd5b50604051620051213803806200512183398181016040528101906200005391906200030b565b33600260006101000a81548173ffffffffffffffffffffffffffffffffffffffff021916908373ffffffffffffffffffffffffffffffffffffffff1602179055506000600560006101000a81548160ff021916908360ff160217905550816000806101000a81548173ffffffffffffffffffffffffffffffffffffffff021916908373ffffffffffffffffffffffffffffffffffffffff16021790555081600160006101000a81548173ffffffffffffffffffffffffffffffffffffffff021916908373ffffffffffffffffffffffffffffffffffffffff1602179055506200013b6200022c565b33816000019073ffffffffffffffffffffffffffffffffffffffff16908173ffffffffffffffffffffffffffffffffffffffff1681525050600181602001901515908115158152505081816040018190525060008054906101000a900473ffffffffffffffffffffffffffffffffffffffff1673ffffffffffffffffffffffffffffffffffffffff1663ab86677883833360006040518563ffffffff1660e01b8152600401620001ef9493929190620004d1565b600060405180830381600087803b1580156200020a57600080fd5b505af11580156200021f573d6000803e3d6000fd5b505050505050506200069d565b6040518060c00160405280600073ffffffffffffffffffffffffffffffffffffffff16815260200160001515815260200160608152602001600015158152602001600060ff168152602001600060ff1681525090565b600062000299620002938462000560565b6200052c565b905082815260208101848484011115620002b257600080fd5b620002bf8482856200060d565b509392505050565b600081519050620002d88162000683565b92915050565b600082601f830112620002f057600080fd5b81516200030284826020860162000282565b91505092915050565b600080604083850312156200031f57600080fd5b60006200032f85828601620002c7565b925050602083015167ffffffffffffffff8111156200034d57600080fd5b6200035b85828601620002de565b9150509250929050565b6200037081620005c0565b82525050565b6200038181620005c0565b82525050565b6200039281620005d4565b82525050565b620003a381620005d4565b82525050565b6000620003b68262000593565b620003c281856200059e565b9350620003d48185602086016200060d565b620003df8162000672565b840191505092915050565b6000620003f78262000593565b620004038185620005af565b9350620004158185602086016200060d565b620004208162000672565b840191505092915050565b600060c08301600083015162000445600086018262000365565b5060208301516200045a602086018262000387565b5060408301518482036040860152620004748282620003a9565b91505060608301516200048b606086018262000387565b506080830151620004a06080860182620004c0565b5060a0830151620004b560a0860182620004c0565b508091505092915050565b620004cb8162000600565b82525050565b60006080820190508181036000830152620004ed8187620003ea565b905081810360208301526200050381866200042b565b905062000514604083018562000376565b62000523606083018462000398565b95945050505050565b6000604051905081810181811067ffffffffffffffff8211171562000556576200055562000643565b5b8060405250919050565b600067ffffffffffffffff8211156200057e576200057d62000643565b5b601f19601f8301169050602081019050919050565b600081519050919050565b600082825260208201905092915050565b600082825260208201905092915050565b6000620005cd82620005e0565b9050919050565b60008115159050919050565b600073ffffffffffffffffffffffffffffffffffffffff82169050919050565b600060ff82169050919050565b60005b838110156200062d57808201518184015260208101905062000610565b838111156200063d576000848401525b50505050565b7f4e487b7100000000000000000000000000000000000000000000000000000000600052604160045260246000fd5b6000601f19601f8301169050919050565b6200068e81620005c0565b81146200069a57600080fd5b50565b614a7480620006ad6000396000f3fe6080604052600436106101665760003560e01c80637fd8e261116100d1578063b5d3f1441161008a578063c7cfa83b11610064578063c7cfa83b146104be578063cd905dff146104e7578063db0a0d9d14610512578063f77890ea1461053d57610166565b8063b5d3f1441461042d578063b5ece92314610458578063c5a95cc21461048157610166565b80637fd8e2611461035d578063833b1fce1461038857806396833965146103b3578063a73f728b146103cf578063ae36d149146103fa578063b2d5ae441461042357610166565b806340f85d3d1161012357806340f85d3d1461025a5780634c8b42eb146102975780635f1cc0e6146102c257806364b4f751146102ed5780636e424164146103185780636ea21ad61461034157610166565b80630e2c41291461016b57806312065fe0146101945780631b655054146101bf578063339d2590146101ea5780633a74efa5146101f45780633f8dd54514610231575b600080fd5b34801561017757600080fd5b50610192600480360381019061018d9190613491565b610568565b005b3480156101a057600080fd5b506101a9610a63565b6040516101b691906144ec565b60405180910390f35b3480156101cb57600080fd5b506101d4610b09565b6040516101e191906140cc565b60405180910390f35b6101f2610b2f565b005b34801561020057600080fd5b5061021b60048036038101906102169190613450565b610c9c565b60405161022891906144af565b60405180910390f35b34801561023d57600080fd5b5061025860048036038101906102539190613450565b610d59565b005b34801561026657600080fd5b50610281600480360381019061027c9190613450565b610f17565b60405161028e9190614154565b60405180910390f35b3480156102a357600080fd5b506102ac610fcc565b6040516102b99190614117565b60405180910390f35b3480156102ce57600080fd5b506102d7611076565b6040516102e49190614139565b60405180910390f35b3480156102f957600080fd5b506103026111b6565b60405161030f91906144ec565b60405180910390f35b34801561032457600080fd5b5061033f600480360381019061033a9190613450565b6111c2565b005b61035b60048036038101906103569190613450565b611576565b005b34801561036957600080fd5b506103726118b8565b60405161037f91906144ec565b60405180910390f35b34801561039457600080fd5b5061039d6118c4565b6040516103aa91906144d1565b60405180910390f35b6103cd60048036038101906103c89190613450565b6119a1565b005b3480156103db57600080fd5b506103e4611ab4565b6040516103f19190614507565b60405180910390f35b34801561040657600080fd5b50610421600480360381019061041c9190613450565b611ac7565b005b61042b611bc3565b005b34801561043957600080fd5b50610442611c50565b60405161044f91906144ec565b60405180910390f35b34801561046457600080fd5b5061047f600480360381019061047a91906133fe565b611c5c565b005b34801561048d57600080fd5b506104a860048036038101906104a39190613450565b6121fb565b6040516104b5919061448d565b60405180910390f35b3480156104ca57600080fd5b506104e560048036038101906104e091906135b9565b6122b8565b005b3480156104f357600080fd5b506104fc6126b9565b6040516105099190614154565b60405180910390f35b34801561051e57600080fd5b50610527612763565b6040516105349190614507565b60405180910390f35b34801561054957600080fd5b50610552612809565b60405161055f9190614507565b60405180910390f35b60008054906101000a900473ffffffffffffffffffffffffffffffffffffffff1673ffffffffffffffffffffffffffffffffffffffff16637677bb6f336040518263ffffffff1660e01b81526004016105c191906140cc565b60206040518083038186803b1580156105d957600080fd5b505afa1580156105ed573d6000803e3d6000fd5b505050506040513d601f19601f820116820180604052508101906106119190613427565b610650576040517f08c379a00000000000000000000000000000000000000000000000000000000081526004016106479061446d565b60405180910390fd5b60008060009054906101000a900473ffffffffffffffffffffffffffffffffffffffff1673ffffffffffffffffffffffffffffffffffffffff1663c5a95cc2846040518263ffffffff1660e01b81526004016106ac9190614198565b60006040518083038186803b1580156106c457600080fd5b505afa1580156106d8573d6000803e3d6000fd5b505050506040513d6000823e3d601f19601f8201168201806040525081019061070191906134e5565b9050600073ffffffffffffffffffffffffffffffffffffffff16816000015173ffffffffffffffffffffffffffffffffffffffff1614610776576040517f08c379a000000000000000000000000000000000000000000000000000000000815260040161076d9061428d565b60405180910390fd5b60008060009054906101000a900473ffffffffffffffffffffffffffffffffffffffff1673ffffffffffffffffffffffffffffffffffffffff1663db0a0d9d6040518163ffffffff1660e01b815260040160206040518083038186803b1580156107df57600080fd5b505afa1580156107f3573d6000803e3d6000fd5b505050506040513d601f19601f820116820180604052508101906108179190613590565b60ff16905060008060009054906101000a900473ffffffffffffffffffffffffffffffffffffffff1673ffffffffffffffffffffffffffffffffffffffff1663f77890ea6040518163ffffffff1660e01b815260040160206040518083038186803b15801561088557600080fd5b505afa158015610899573d6000803e3d6000fd5b505050506040513d601f19601f820116820180604052508101906108bd9190613590565b60ff1690506108ca612de1565b84816000019073ffffffffffffffffffffffffffffffffffffffff16908173ffffffffffffffffffffffffffffffffffffffff1681525050858160400181905250600482101561092a576001816020019015159081151581525050610987565b60006002846109399190614724565b905060028160ff16101561095f5760028260a0019060ff16908160ff1681525050610972565b808260a0019060ff16908160ff16815250505b6001826080019060ff16908160ff1681525050505b60008054906101000a900473ffffffffffffffffffffffffffffffffffffffff1673ffffffffffffffffffffffffffffffffffffffff1663ab86677887833360016040518563ffffffff1660e01b81526004016109e794939291906141ea565b600060405180830381600087803b158015610a0157600080fd5b505af1158015610a15573d6000803e3d6000fd5b50505050806020015115610a5b577f56a06089273ea1e4a405da8d69a67118c0eca5373de1dfaaf25488644e52fd2086604051610a529190614198565b60405180910390a15b505050505050565b60008060009054906101000a900473ffffffffffffffffffffffffffffffffffffffff1673ffffffffffffffffffffffffffffffffffffffff166312065fe06040518163ffffffff1660e01b815260040160206040518083038186803b158015610acc57600080fd5b505afa158015610ae0573d6000803e3d6000fd5b505050506040513d601f19601f82011682018060405250810190610b049190613567565b905090565b600160009054906101000a900473ffffffffffffffffffffffffffffffffffffffff1681565b67016345785d8a0000341015610b7a576040517f08c379a0000000000000000000000000000000000000000000000000000000008152600401610b71906143ed565b60405180910390fd5b6000610b85336128af565b9050604051806040016040528060011515815260200182815250600660003373ffffffffffffffffffffffffffffffffffffffff1673ffffffffffffffffffffffffffffffffffffffff16815260200190815260200160002060008201518160000160006101000a81548160ff021916908315150217905550602082015181600101906003610c15929190612e37565b5090505060008054906101000a900473ffffffffffffffffffffffffffffffffffffffff1673ffffffffffffffffffffffffffffffffffffffff16625c33e1346040518263ffffffff1660e01b81526004016000604051808303818588803b158015610c8057600080fd5b505af1158015610c94573d6000803e3d6000fd5b505050505050565b610ca4612ed1565b60008054906101000a900473ffffffffffffffffffffffffffffffffffffffff1673ffffffffffffffffffffffffffffffffffffffff16633a74efa5836040518263ffffffff1660e01b8152600401610cfd9190614198565b60006040518083038186803b158015610d1557600080fd5b505afa158015610d29573d6000803e3d6000fd5b505050506040513d6000823e3d601f19601f82011682018060405250810190610d529190613526565b9050919050565b6001151560008054906101000a900473ffffffffffffffffffffffffffffffffffffffff1673ffffffffffffffffffffffffffffffffffffffff16633a74efa5836040518263ffffffff1660e01b8152600401610db69190614198565b60006040518083038186803b158015610dce57600080fd5b505afa158015610de2573d6000803e3d6000fd5b505050506040513d6000823e3d601f19601f82011682018060405250810190610e0b9190613526565b6020015115151415610e52576040517f08c379a0000000000000000000000000000000000000000000000000000000008152600401610e499061438d565b60405180910390fd5b60008054906101000a900473ffffffffffffffffffffffffffffffffffffffff1673ffffffffffffffffffffffffffffffffffffffff16633f8dd545826040518263ffffffff1660e01b8152600401610eab9190614198565b600060405180830381600087803b158015610ec557600080fd5b505af1158015610ed9573d6000803e3d6000fd5b505050507f0366c69e79f8ad8a2a11f74187b5a274720fea8cd1ed2ed9b5ba4bde7ef392c881604051610f0c9190614198565b60405180910390a150565b60008060009054906101000a900473ffffffffffffffffffffffffffffffffffffffff1673ffffffffffffffffffffffffffffffffffffffff166335b71da983336040518363ffffffff1660e01b8152600401610f759291906141ba565b60206040518083038186803b158015610f8d57600080fd5b505afa158015610fa1573d6000803e3d6000fd5b505050506040513d601f19601f82011682018060405250810190610fc59190613427565b9050919050565b606060008054906101000a900473ffffffffffffffffffffffffffffffffffffffff1673ffffffffffffffffffffffffffffffffffffffff16634c8b42eb6040518163ffffffff1660e01b815260040160006040518083038186803b15801561103457600080fd5b505afa158015611048573d6000803e3d6000fd5b505050506040513d6000823e3d601f19601f8201168201806040525081019061107191906133bd565b905090565b61107e612f10565b600660003373ffffffffffffffffffffffffffffffffffffffff1673ffffffffffffffffffffffffffffffffffffffff16815260200190815260200160002060000160009054906101000a900460ff1661110d576040517f08c379a00000000000000000000000000000000000000000000000000000000081526004016111049061432d565b60405180910390fd5b600660003373ffffffffffffffffffffffffffffffffffffffff1673ffffffffffffffffffffffffffffffffffffffff1681526020019081526020016000206001016003806020026040519081016040528092919082600380156111ac576020028201916000905b82829054906101000a900460ff1660ff16815260200190600101906020826000010492830192600103820291508084116111755790505b5050505050905090565b67016345785d8a000081565b60008054906101000a900473ffffffffffffffffffffffffffffffffffffffff1673ffffffffffffffffffffffffffffffffffffffff16637677bb6f336040518263ffffffff1660e01b815260040161121b91906140cc565b60206040518083038186803b15801561123357600080fd5b505afa158015611247573d6000803e3d6000fd5b505050506040513d601f19601f8201168201806040525081019061126b9190613427565b6112aa576040517f08c379a00000000000000000000000000000000000000000000000000000000081526004016112a19061430d565b60405180910390fd5b6000151560008054906101000a900473ffffffffffffffffffffffffffffffffffffffff1673ffffffffffffffffffffffffffffffffffffffff166335b71da983336040518363ffffffff1660e01b81526004016113099291906141ba565b60206040518083038186803b15801561132157600080fd5b505afa158015611335573d6000803e3d6000fd5b505050506040513d601f19601f820116820180604052508101906113599190613427565b15151461139b576040517f08c379a0000000000000000000000000000000000000000000000000000000008152600401611392906142cd565b60405180910390fd5b60008060009054906101000a900473ffffffffffffffffffffffffffffffffffffffff1673ffffffffffffffffffffffffffffffffffffffff1663c5a95cc2836040518263ffffffff1660e01b81526004016113f79190614198565b60006040518083038186803b15801561140f57600080fd5b505afa158015611423573d6000803e3d6000fd5b505050506040513d6000823e3d601f19601f8201168201806040525081019061144c91906134e5565b9050600081905060018160800181815161146691906146ed565b91509060ff16908160ff16815250508060a0015160ff16816080015160ff16141561149d5760018160200190151590811515815250505b60008054906101000a900473ffffffffffffffffffffffffffffffffffffffff1673ffffffffffffffffffffffffffffffffffffffff1663ab86677884833360016040518563ffffffff1660e01b81526004016114fd94939291906141ea565b600060405180830381600087803b15801561151757600080fd5b505af115801561152b573d6000803e3d6000fd5b50505050806020015115611571577f56a06089273ea1e4a405da8d69a67118c0eca5373de1dfaaf25488644e52fd20836040516115689190614198565b60405180910390a15b505050565b600034116115b9576040517f08c379a00000000000000000000000000000000000000000000000000000000081526004016115b09061436d565b60405180910390fd5b67016345785d8a0000341115611604576040517f08c379a00000000000000000000000000000000000000000000000000000000081526004016115fb9061442d565b60405180910390fd5b6001151560008054906101000a900473ffffffffffffffffffffffffffffffffffffffff1673ffffffffffffffffffffffffffffffffffffffff16633a74efa5836040518263ffffffff1660e01b81526004016116619190614198565b60006040518083038186803b15801561167957600080fd5b505afa15801561168d573d6000803e3d6000fd5b505050506040513d6000823e3d601f19601f820116820180604052508101906116b69190613526565b602001511515146116fc576040517f08c379a00000000000000000000000000000000000000000000000000000000081526004016116f3906142ed565b60405180910390fd5b6001151560008054906101000a900473ffffffffffffffffffffffffffffffffffffffff1673ffffffffffffffffffffffffffffffffffffffff16634a8e57b933846040518363ffffffff1660e01b815260040161175b9291906140e7565b602060405180830381600087803b15801561177557600080fd5b505af1158015611789573d6000803e3d6000fd5b505050506040513d601f19601f820116820180604052508101906117ad9190613427565b151514156117f0576040517f08c379a00000000000000000000000000000000000000000000000000000000081526004016117e79061444d565b60405180910390fd5b60008054906101000a900473ffffffffffffffffffffffffffffffffffffffff1673ffffffffffffffffffffffffffffffffffffffff1663e1a3e55c3483336040518463ffffffff1660e01b815260040161184c9291906141ba565b6000604051808303818588803b15801561186557600080fd5b505af1158015611879573d6000803e3d6000fd5b50505050507f66c20c9adfe9f3632ac886e495690a46da01b6517b3746ac05446f04099d81ca816040516118ad9190614198565b60405180910390a150565b670de0b6b3a764000081565b6118cc612f32565b600660003373ffffffffffffffffffffffffffffffffffffffff1673ffffffffffffffffffffffffffffffffffffffff1681526020019081526020016000206040518060400160405290816000820160009054906101000a900460ff1615151515815260200160018201600380602002604051908101604052809291908260038015611993576020028201916000905b82829054906101000a900460ff1660ff168152602001906001019060208260000104928301926001038202915080841161195c5790505b505050505081525050905090565b670de0b6b3a76400003410156119ec576040517f08c379a00000000000000000000000000000000000000000000000000000000081526004016119e3906143ad565b60405180910390fd5b60008054906101000a900473ffffffffffffffffffffffffffffffffffffffff1673ffffffffffffffffffffffffffffffffffffffff1663fc0615f03483336040518463ffffffff1660e01b8152600401611a489291906141ba565b6000604051808303818588803b158015611a6157600080fd5b505af1158015611a75573d6000803e3d6000fd5b50505050507fe9628443f1e55ae7b4afb3aceea43da8b382c4905ed4a67d3dcb407514d21aa081604051611aa99190614198565b60405180910390a150565b600560019054906101000a900460ff1681565b6000611ad233612c84565b905060008183604051602001611ae99291906140a4565b604051602081830303815290604052805190602001209050336007600083815260200190815260200160002060000160006101000a81548173ffffffffffffffffffffffffffffffffffffffff021916908373ffffffffffffffffffffffffffffffffffffffff16021790555060016007600083815260200190815260200160002060000160146101000a81548160ff0219169083151502179055507fc4eb28980b0b7f9e7dc8fcfdd035a17c3ca477f2c05842a3036467785d724e398284604051611bb6929190614522565b60405180910390a1505050565b60008054906101000a900473ffffffffffffffffffffffffffffffffffffffff1673ffffffffffffffffffffffffffffffffffffffff16630c11dedd336040518263ffffffff1660e01b8152600401611c1c91906140cc565b600060405180830381600087803b158015611c3657600080fd5b505af1158015611c4a573d6000803e3d6000fd5b50505050565b67016345785d8a000081565b60008054906101000a900473ffffffffffffffffffffffffffffffffffffffff1673ffffffffffffffffffffffffffffffffffffffff16637677bb6f336040518263ffffffff1660e01b8152600401611cb591906140cc565b60206040518083038186803b158015611ccd57600080fd5b505afa158015611ce1573d6000803e3d6000fd5b505050506040513d601f19601f82011682018060405250810190611d059190613427565b611d44576040517f08c379a0000000000000000000000000000000000000000000000000000000008152600401611d3b906142ad565b60405180910390fd5b60046000600560009054906101000a900460ff1660ff16815260200190815260200160002060000160003373ffffffffffffffffffffffffffffffffffffffff1673ffffffffffffffffffffffffffffffffffffffff16815260200190815260200160002060009054906101000a900460ff1615611df7576040517f08c379a0000000000000000000000000000000000000000000000000000000008152600401611dee9061434d565b60405180910390fd5b60008054906101000a900473ffffffffffffffffffffffffffffffffffffffff1673ffffffffffffffffffffffffffffffffffffffff1663cd905dff6040518163ffffffff1660e01b815260040160206040518083038186803b158015611e5d57600080fd5b505afa158015611e71573d6000803e3d6000fd5b505050506040513d601f19601f82011682018060405250810190611e959190613427565b15158115151415611edb576040517f08c379a0000000000000000000000000000000000000000000000000000000008152600401611ed2906143cd565b60405180910390fd5b600160046000600560009054906101000a900460ff1660ff16815260200190815260200160002060010160008282829054906101000a900460ff16611f2091906146ed565b92506101000a81548160ff021916908360ff160217905550600160046000600560009054906101000a900460ff1660ff16815260200190815260200160002060000160003373ffffffffffffffffffffffffffffffffffffffff1673ffffffffffffffffffffffffffffffffffffffff16815260200190815260200160002060006101000a81548160ff02191690831515021790555060008060009054906101000a900473ffffffffffffffffffffffffffffffffffffffff1673ffffffffffffffffffffffffffffffffffffffff1663db0a0d9d6040518163ffffffff1660e01b815260040160206040518083038186803b15801561201f57600080fd5b505afa158015612033573d6000803e3d6000fd5b505050506040513d601f19601f820116820180604052508101906120579190613590565b905060006002826120689190614755565b9050600060046000600560009054906101000a900460ff1660ff16815260200190815260200160002060010160009054906101000a900460ff1690508060ff168260ff1611156120dd5780826120be91906147ba565b600560016101000a81548160ff021916908360ff1602179055506121f5565b6000600560016101000a81548160ff021916908360ff1602179055506001600560008282829054906101000a900460ff1661211891906146ed565b92506101000a81548160ff021916908360ff16021790555060008054906101000a900473ffffffffffffffffffffffffffffffffffffffff1673ffffffffffffffffffffffffffffffffffffffff1663c590dda585336040518363ffffffff1660e01b815260040161218b92919061416f565b600060405180830381600087803b1580156121a557600080fd5b505af11580156121b9573d6000803e3d6000fd5b505050507f214e23b5b069eef8c742fb55938e639ea22c0ad2a69fad4be3a84e4eea3f1d17846040516121ec9190614154565b60405180910390a15b50505050565b612203612de1565b60008054906101000a900473ffffffffffffffffffffffffffffffffffffffff1673ffffffffffffffffffffffffffffffffffffffff1663c5a95cc2836040518263ffffffff1660e01b815260040161225c9190614198565b60006040518083038186803b15801561227457600080fd5b505afa158015612288573d6000803e3d6000fd5b505050506040513d6000823e3d601f19601f820116820180604052508101906122b191906134e5565b9050919050565b8260ff16600660003373ffffffffffffffffffffffffffffffffffffffff1673ffffffffffffffffffffffffffffffffffffffff168152602001908152602001600020600101600060038110612337577f4e487b7100000000000000000000000000000000000000000000000000000000600052603260045260246000fd5b602091828204019190069054906101000a900460ff1660ff1614806123f157508260ff16600660003373ffffffffffffffffffffffffffffffffffffffff1673ffffffffffffffffffffffffffffffffffffffff1681526020019081526020016000206001016001600381106123d6577f4e487b7100000000000000000000000000000000000000000000000000000000600052603260045260246000fd5b602091828204019190069054906101000a900460ff1660ff16145b8061249157508260ff16600660003373ffffffffffffffffffffffffffffffffffffffff1673ffffffffffffffffffffffffffffffffffffffff168152602001908152602001600020600101600260038110612476577f4e487b7100000000000000000000000000000000000000000000000000000000600052603260045260246000fd5b602091828204019190069054906101000a900460ff1660ff16145b6124d0576040517f08c379a00000000000000000000000000000000000000000000000000000000081526004016124c79061440d565b60405180910390fd5b600083836040516020016124e59291906140a4565b6040516020818303038152906040528051906020012090506007600082815260200190815260200160002060000160149054906101000a900460ff16612560576040517f08c379a00000000000000000000000000000000000000000000000000000000081526004016125579061426d565b60405180910390fd5b6007600082815260200190815260200160002060010160008360ff1660ff168152602001908152602001600020339080600181540180825580915050600190039060005260206000200160009091909190916101000a81548173ffffffffffffffffffffffffffffffffffffffff021916908373ffffffffffffffffffffffffffffffffffffffff1602179055507f925f911821c66d0f18045076c1f0aef814fdd5efb7e410058659469c8b1b775f838360405161261f92919061423d565b60405180910390a160036007600083815260200190815260200160002060010160008460ff1660ff16815260200190815260200160002080549050106126a7577f20982268391d17fb1afa2effd9453c56e80edbaeba5cc71592dccdbd8bd1ac04838360405161269092919061423d565b60405180910390a16126a28383612d50565b6126b3565b6126b283600a612d50565b5b50505050565b60008060008054906101000a900473ffffffffffffffffffffffffffffffffffffffff1673ffffffffffffffffffffffffffffffffffffffff1663cd905dff6040518163ffffffff1660e01b815260040160206040518083038186803b15801561272257600080fd5b505afa158015612736573d6000803e3d6000fd5b505050506040513d601f19601f8201168201806040525081019061275a9190613427565b90508091505090565b60008060009054906101000a900473ffffffffffffffffffffffffffffffffffffffff1673ffffffffffffffffffffffffffffffffffffffff1663db0a0d9d6040518163ffffffff1660e01b815260040160206040518083038186803b1580156127cc57600080fd5b505afa1580156127e0573d6000803e3d6000fd5b505050506040513d601f19601f820116820180604052508101906128049190613590565b905090565b60008060009054906101000a900473ffffffffffffffffffffffffffffffffffffffff1673ffffffffffffffffffffffffffffffffffffffff1663f77890ea6040518163ffffffff1660e01b815260040160206040518083038186803b15801561287257600080fd5b505afa158015612886573d6000803e3d6000fd5b505050506040513d601f19601f820116820180604052508101906128aa9190613590565b905090565b6128b7612f10565b6128bf612f10565b6128c883612c84565b81600060038110612902577f4e487b7100000000000000000000000000000000000000000000000000000000600052603260045260246000fd5b602002019060ff16908160ff16815250508060006003811061294d577f4e487b7100000000000000000000000000000000000000000000000000000000600052603260045260246000fd5b60200201518160016003811061298c577f4e487b7100000000000000000000000000000000000000000000000000000000600052603260045260246000fd5b602002019060ff16908160ff16815250505b806000600381106129d8577f4e487b7100000000000000000000000000000000000000000000000000000000600052603260045260246000fd5b602002015160ff1681600160038110612a1a577f4e487b7100000000000000000000000000000000000000000000000000000000600052603260045260246000fd5b602002015160ff161415612a8157612a3183612c84565b81600160038110612a6b577f4e487b7100000000000000000000000000000000000000000000000000000000600052603260045260246000fd5b602002019060ff16908160ff168152505061299e565b80600160038110612abb577f4e487b7100000000000000000000000000000000000000000000000000000000600052603260045260246000fd5b602002015181600260038110612afa577f4e487b7100000000000000000000000000000000000000000000000000000000600052603260045260246000fd5b602002019060ff16908160ff16815250505b80600060038110612b46577f4e487b7100000000000000000000000000000000000000000000000000000000600052603260045260246000fd5b602002015160ff1681600260038110612b88577f4e487b7100000000000000000000000000000000000000000000000000000000600052603260045260246000fd5b602002015160ff161480612c1d575080600160038110612bd1577f4e487b7100000000000000000000000000000000000000000000000000000000600052603260045260246000fd5b602002015160ff1681600260038110612c13577f4e487b7100000000000000000000000000000000000000000000000000000000600052603260045260246000fd5b602002015160ff16145b15612c7b57612c2b83612c84565b81600260038110612c65577f4e487b7100000000000000000000000000000000000000000000000000000000600052603260045260246000fd5b602002019060ff16908160ff1681525050612b0c565b80915050919050565b600080600a905060008160ff166005600281819054906101000a900460ff1680929190612cb09061488f565b91906101000a81548160ff021916908360ff16021790555060ff1643612cd69190614786565b4085604051602001612ce9929190614078565b6040516020818303038152906040528051906020012060001c612d0c91906148f9565b905060fa600560029054906101000a900460ff1660ff161115612d46576000600560026101000a81548160ff021916908360ff1602179055505b8092505050919050565b60008054906101000a900473ffffffffffffffffffffffffffffffffffffffff1673ffffffffffffffffffffffffffffffffffffffff1663e1158f4d83836040518363ffffffff1660e01b8152600401612dab92919061423d565b600060405180830381600087803b158015612dc557600080fd5b505af1158015612dd9573d6000803e3d6000fd5b505050505050565b6040518060c00160405280600073ffffffffffffffffffffffffffffffffffffffff16815260200160001515815260200160608152602001600015158152602001600060ff168152602001600060ff1681525090565b826003601f01602090048101928215612ec05791602002820160005b83821115612e9157835183826101000a81548160ff021916908360ff1602179055509260200192600101602081600001049283019260010302612e53565b8015612ebe5782816101000a81549060ff0219169055600101602081600001049283019260010302612e91565b505b509050612ecd9190612f54565b5090565b6040518060c001604052806060815260200160001515815260200160001515815260200160608152602001600060ff1681526020016000151581525090565b6040518060600160405280600390602082028036833780820191505090505090565b6040518060400160405280600015158152602001612f4e612f10565b81525090565b5b80821115612f6d576000816000905550600101612f55565b5090565b6000612f84612f7f84614583565b614552565b9050808382526020820190508260005b85811015612fc45781518501612faa8882613188565b845260208401935060208301925050600181019050612f94565b5050509392505050565b6000612fe1612fdc846145af565b614552565b9050808382526020820190508285604086028201111561300057600080fd5b60005b8581101561303057816130168882613332565b845260208401935060408301925050600181019050613003565b5050509392505050565b600061304d613048846145db565b614552565b90508281526020810184848401111561306557600080fd5b61307084828561484d565b509392505050565b600061308b613086846145db565b614552565b9050828152602081018484840111156130a357600080fd5b6130ae84828561485c565b509392505050565b6000813590506130c5816149e2565b92915050565b6000815190506130da816149e2565b92915050565b600082601f8301126130f157600080fd5b8151613101848260208601612f71565b91505092915050565b600082601f83011261311b57600080fd5b815161312b848260208601612fce565b91505092915050565b600081359050613143816149f9565b92915050565b600081519050613158816149f9565b92915050565b600082601f83011261316f57600080fd5b813561317f84826020860161303a565b91505092915050565b600082601f83011261319957600080fd5b81516131a9848260208601613078565b91505092915050565b600060c082840312156131c457600080fd5b6131ce60c0614552565b905060006131de848285016130cb565b60008301525060206131f284828501613149565b602083015250604082015167ffffffffffffffff81111561321257600080fd5b61321e84828501613188565b604083015250606061323284828501613149565b6060830152506080613246848285016133a8565b60808301525060a061325a848285016133a8565b60a08301525092915050565b600060c0828403121561327857600080fd5b61328260c0614552565b9050600082015167ffffffffffffffff81111561329e57600080fd5b6132aa84828501613188565b60008301525060206132be84828501613149565b60208301525060406132d284828501613149565b604083015250606082015167ffffffffffffffff8111156132f257600080fd5b6132fe8482850161310a565b6060830152506080613312848285016133a8565b60808301525060a061332684828501613149565b60a08301525092915050565b60006040828403121561334457600080fd5b61334e6040614552565b9050600061335e848285016130cb565b60008301525060206133728482850161337e565b60208301525092915050565b60008151905061338d81614a10565b92915050565b6000813590506133a281614a27565b92915050565b6000815190506133b781614a27565b92915050565b6000602082840312156133cf57600080fd5b600082015167ffffffffffffffff8111156133e957600080fd5b6133f5848285016130e0565b91505092915050565b60006020828403121561341057600080fd5b600061341e84828501613134565b91505092915050565b60006020828403121561343957600080fd5b600061344784828501613149565b91505092915050565b60006020828403121561346257600080fd5b600082013567ffffffffffffffff81111561347c57600080fd5b6134888482850161315e565b91505092915050565b600080604083850312156134a457600080fd5b600083013567ffffffffffffffff8111156134be57600080fd5b6134ca8582860161315e565b92505060206134db858286016130b6565b9150509250929050565b6000602082840312156134f757600080fd5b600082015167ffffffffffffffff81111561351157600080fd5b61351d848285016131b2565b91505092915050565b60006020828403121561353857600080fd5b600082015167ffffffffffffffff81111561355257600080fd5b61355e84828501613266565b91505092915050565b60006020828403121561357957600080fd5b60006135878482850161337e565b91505092915050565b6000602082840312156135a257600080fd5b60006135b0848285016133a8565b91505092915050565b6000806000606084860312156135ce57600080fd5b60006135dc86828701613393565b935050602084013567ffffffffffffffff8111156135f957600080fd5b6136058682870161315e565b925050604061361686828701613393565b9150509250925092565b600061362c838361384f565b905092915050565b60006136408383613fc7565b60408301905092915050565b60006136588383614043565b60208301905092915050565b61366d816147ee565b82525050565b61367c816147ee565b82525050565b61369361368e826147ee565b6148b9565b82525050565b60006136a482614635565b6136ae8185614688565b9350836020820285016136c08561460b565b8060005b858110156136fc57848403895281516136dd8582613620565b94506136e883614661565b925060208a019950506001810190506136c4565b50829750879550505050505092915050565b600061371982614640565b6137238185614699565b935061372e8361461b565b8060005b8381101561375f5781516137468882613634565b97506137518361466e565b925050600181019050613732565b5085935050505092915050565b6137758161464b565b61377f81846146aa565b925061378a8261462b565b8060005b838110156137bb5781516137a2878261364c565b96506137ad8361467b565b92505060018101905061378e565b505050505050565b6137cc8161464b565b6137d681846146b5565b92506137e18261462b565b8060005b838110156138125781516137f9878261364c565b96506138048361467b565b9250506001810190506137e5565b505050505050565b61382381614800565b82525050565b61383281614800565b82525050565b6138496138448261480c565b6148cb565b82525050565b600061385a82614656565b61386481856146c0565b935061387481856020860161485c565b61387d816149b7565b840191505092915050565b600061389382614656565b61389d81856146d1565b93506138ad81856020860161485c565b6138b6816149b7565b840191505092915050565b60006138cc82614656565b6138d681856146e2565b93506138e681856020860161485c565b80840191505092915050565b60006138ff602f836146d1565b91507f466c69676874206f722074696d657374616d7020646f206e6f74206d6174636860008301527f206f7261636c65207265717565737400000000000000000000000000000000006020830152604082019050919050565b60006139656025836146d1565b91507f54686973206169726c696e652068617320616c7265616479206265656e20636c60008301527f61696d65640000000000000000000000000000000000000000000000000000006020830152604082019050919050565b60006139cb6022836146d1565b91507f43616c6c6572206973206e6f742066756e646564206169726c696e65206f776e60008301527f65720000000000000000000000000000000000000000000000000000000000006020830152604082019050919050565b6000613a31601c836146d1565b91507f596f7527766520616c726561647920617070726f7665642074686973000000006000830152602082019050919050565b6000613a716019836146d1565b91507f466c69676874206d7573742062652072656769737465726564000000000000006000830152602082019050919050565b6000613ab16029836146d1565b91507f4f6e6c792066756e646564206f776e6572732063616e20617070726f7665206e60008301527f6577206f776e65727300000000000000000000000000000000000000000000006020830152604082019050919050565b6000613b17601b836146d1565b91507f4e6f74207265676973746572656420617320616e206f7261636c6500000000006000830152602082019050919050565b6000613b57600e836146d1565b91507f416c726561647920766f746564210000000000000000000000000000000000006000830152602082019050919050565b6000613b976012836146d1565b91507f43616e277420696e7375726520666f72203000000000000000000000000000006000830152602082019050919050565b6000613bd76024836146d1565b91507f466c69676874206d7573746e2774206265207265676973746572656420616c7260008301527f65616479000000000000000000000000000000000000000000000000000000006020830152604082019050919050565b6000613c3d602a836146d1565b91507f4d75737420706179206174206c65617374203120657468657220746f2066756e60008301527f64206169726c696e6521000000000000000000000000000000000000000000006020830152604082019050919050565b6000613ca36030836146d1565b91507f4f7065726174696f6e20737461746520697320616c726561647920776861742060008301527f796f7527766520726571756573746564000000000000000000000000000000006020830152604082019050919050565b6000613d09601c836146d1565b91507f526567697374726174696f6e20666565206973207265717569726564000000006000830152602082019050919050565b6000613d496023836146d1565b91507f496e64657820646f6573206e6f74206d61746368206f7261636c65207265717560008301527f65737400000000000000000000000000000000000000000000000000000000006020830152604082019050919050565b6000613daf6025836146d1565b91507f43616e277420696e7375726520666f72206d6f7265207468616e20302e31206560008301527f74686572200000000000000000000000000000000000000000000000000000006020830152604082019050919050565b6000613e156018836146d1565b91507f416c726561647920626f7567687420696e737572616e636500000000000000006000830152602082019050919050565b6000613e55602a836146d1565b91507f4f6e6c792066756e646564206f776e6572732063616e2072656769737465722060008301527f6e6577206f776e657273000000000000000000000000000000000000000000006020830152604082019050919050565b600060c083016000830151613ec66000860182613664565b506020830151613ed9602086018261381a565b5060408301518482036040860152613ef1828261384f565b9150506060830151613f06606086018261381a565b506080830151613f196080860182614043565b5060a0830151613f2c60a0860182614043565b508091505092915050565b600060c0830160008301518482036000860152613f54828261384f565b9150506020830151613f69602086018261381a565b506040830151613f7c604086018261381a565b5060608301518482036060860152613f94828261370e565b9150506080830151613fa96080860182614043565b5060a0830151613fbc60a086018261381a565b508091505092915050565b604082016000820151613fdd6000850182613664565b506020820151613ff06020850182614025565b50505050565b60808201600082015161400c600085018261381a565b50602082015161401f602085018261376c565b50505050565b61402e81614836565b82525050565b61403d81614836565b82525050565b61404c81614840565b82525050565b61405b81614840565b82525050565b61407261406d82614840565b6148e7565b82525050565b60006140848285613838565b6020820191506140948284613682565b6014820191508190509392505050565b60006140b08285614061565b6001820191506140c082846138c1565b91508190509392505050565b60006020820190506140e16000830184613673565b92915050565b60006040820190506140fc6000830185613673565b818103602083015261410e8184613888565b90509392505050565b600060208201905081810360008301526141318184613699565b905092915050565b600060608201905061414e60008301846137c3565b92915050565b60006020820190506141696000830184613829565b92915050565b60006040820190506141846000830185613829565b6141916020830184613673565b9392505050565b600060208201905081810360008301526141b28184613888565b905092915050565b600060408201905081810360008301526141d48185613888565b90506141e36020830184613673565b9392505050565b600060808201905081810360008301526142048187613888565b905081810360208301526142188186613eae565b90506142276040830185613673565b6142346060830184613829565b95945050505050565b600060408201905081810360008301526142578185613888565b90506142666020830184614052565b9392505050565b60006020820190508181036000830152614286816138f2565b9050919050565b600060208201905081810360008301526142a681613958565b9050919050565b600060208201905081810360008301526142c6816139be565b9050919050565b600060208201905081810360008301526142e681613a24565b9050919050565b6000602082019050818103600083015261430681613a64565b9050919050565b6000602082019050818103600083015261432681613aa4565b9050919050565b6000602082019050818103600083015261434681613b0a565b9050919050565b6000602082019050818103600083015261436681613b4a565b9050919050565b6000602082019050818103600083015261438681613b8a565b9050919050565b600060208201905081810360008301526143a681613bca565b9050919050565b600060208201905081810360008301526143c681613c30565b9050919050565b600060208201905081810360008301526143e681613c96565b9050919050565b6000602082019050818103600083015261440681613cfc565b9050919050565b6000602082019050818103600083015261442681613d3c565b9050919050565b6000602082019050818103600083015261444681613da2565b9050919050565b6000602082019050818103600083015261446681613e08565b9050919050565b6000602082019050818103600083015261448681613e48565b9050919050565b600060208201905081810360008301526144a78184613eae565b905092915050565b600060208201905081810360008301526144c98184613f37565b905092915050565b60006080820190506144e66000830184613ff6565b92915050565b60006020820190506145016000830184614034565b92915050565b600060208201905061451c6000830184614052565b92915050565b60006040820190506145376000830185614052565b81810360208301526145498184613888565b90509392505050565b6000604051905081810181811067ffffffffffffffff8211171561457957614578614988565b5b8060405250919050565b600067ffffffffffffffff82111561459e5761459d614988565b5b602082029050602081019050919050565b600067ffffffffffffffff8211156145ca576145c9614988565b5b602082029050602081019050919050565b600067ffffffffffffffff8211156145f6576145f5614988565b5b601f19601f8301169050602081019050919050565b6000819050602082019050919050565b6000819050602082019050919050565b6000819050919050565b600081519050919050565b600081519050919050565b600060039050919050565b600081519050919050565b6000602082019050919050565b6000602082019050919050565b6000602082019050919050565b600082825260208201905092915050565b600082825260208201905092915050565b600081905092915050565b600081905092915050565b600082825260208201905092915050565b600082825260208201905092915050565b600081905092915050565b60006146f882614840565b915061470383614840565b92508260ff038211156147195761471861492a565b5b828201905092915050565b600061472f82614836565b915061473a83614836565b92508261474a57614749614959565b5b828204905092915050565b600061476082614840565b915061476b83614840565b92508261477b5761477a614959565b5b828204905092915050565b600061479182614836565b915061479c83614836565b9250828210156147af576147ae61492a565b5b828203905092915050565b60006147c582614840565b91506147d083614840565b9250828210156147e3576147e261492a565b5b828203905092915050565b60006147f982614816565b9050919050565b60008115159050919050565b6000819050919050565b600073ffffffffffffffffffffffffffffffffffffffff82169050919050565b6000819050919050565b600060ff82169050919050565b82818337600083830152505050565b60005b8381101561487a57808201518184015260208101905061485f565b83811115614889576000848401525b50505050565b600061489a82614840565b915060ff8214156148ae576148ad61492a565b5b600182019050919050565b60006148c4826148d5565b9050919050565b6000819050919050565b60006148e0826149d5565b9050919050565b60006148f2826149c8565b9050919050565b600061490482614836565b915061490f83614836565b92508261491f5761491e614959565b5b828206905092915050565b7f4e487b7100000000000000000000000000000000000000000000000000000000600052601160045260246000fd5b7f4e487b7100000000000000000000000000000000000000000000000000000000600052601260045260246000fd5b7f4e487b7100000000000000000000000000000000000000000000000000000000600052604160045260246000fd5b6000601f19601f8301169050919050565b60008160f81b9050919050565b60008160601b9050919050565b6149eb816147ee565b81146149f657600080fd5b50565b614a0281614800565b8114614a0d57600080fd5b50565b614a1981614836565b8114614a2457600080fd5b50565b614a3081614840565b8114614a3b57600080fd5b5056fea26469706673582212209ed4f43f25ac9a8b0d4b93cfaa0845cfec64e034271c40006f58707dcddbef9f64736f6c63430008000033",
  "immutableReferences": {},
  "source": "// SPDX-License-Identifier: MIT\npragma solidity ^0.8.0;\n\n// It's important to avoid vulnerabilities due to numeric overflow bugs\n// OpenZeppelin's SafeMath library, when used correctly, protects agains such bugs\n// More info: https://www.nccgroup.trust/us/about-us/newsroom-and-events/blog/2018/november/smart-contract-insecurity-bad-arithmetic/\n\nimport \"../node_modules/@openzeppelin/contracts/utils/math/SafeMath.sol\";\n\ncontract FlightSuretyData {\n     struct Airline {\n        address owner;\n        bool registered;\n        string name;\n        bool funded;\n        uint8 votes;\n        uint8 requiredVotes;\n    }\n     struct Insuree {\n        address user;\n        uint256 amount;\n    }\n\n    struct Flight {\n        string flight;\n        bool registered;\n        bool insured;\n        Insuree[] insurees;\n        uint8 statusCode;\n        bool statusChecked;\n    }\n    function isOperational() public view returns(bool) {}\n    function receiveFunds() external payable {}\n    function setOperatingStatus(bool mode, address owner) external {}\n    function getBalance() public view returns(uint256 amount) {}\n    function checkIsFundedOwner(address owner) external view returns (bool) {}\n    function checkHasVoted(string memory airline, address user) external view returns (bool) {}\n    function updateAirline(string memory airline, Airline memory airlineDetails, address user, bool voted) public {}\n    function getAirlineDetails(string memory airline) public view returns(Airline memory) {}\n    function getAirlinesList() public view returns(string[] memory ){}\n    function getRegisteredAirlinesCount() public view returns(uint8){}\n    function getAirlineOwnersCount() public view returns(uint8){}\n    function fund(string memory airline, address insuree) public payable {}\n    function pay(address owner) public payable {}\n    function registerFlight(string memory flight) public {}\n    function updateFlightStatus(string memory flight, uint8 statusCode) public {}\n    function getRegisteredFlight(string memory) external view returns (Flight memory) {}\n    function isAlreadyInsured(address, string memory) public returns (bool) {}\n    function buy(string memory flight, address user) public payable {}\n}\n/************************************************** */\n/* FlightSurety Smart Contract                      */\n/************************************************** */\ncontract FlightSuretyApp {\n    using SafeMath for uint256; // Allow SafeMath functions to be called for all uint256 types (similar to \"prototype\" in Javascript)\n\n    /********************************************************************************************/\n    /*                                       DATA VARIABLES                                     */\n    /********************************************************************************************/\n\n    // Data contract\n    FlightSuretyData dataContract;\n    address public dataAddress;\n\n    // Flight status codes\n    uint8 private constant STATUS_CODE_UNKNOWN = 0;\n    uint8 private constant STATUS_CODE_ON_TIME = 10;\n    uint8 private constant STATUS_CODE_LATE_AIRLINE = 20;\n    uint8 private constant STATUS_CODE_LATE_WEATHER = 30;\n    uint8 private constant STATUS_CODE_LATE_TECHNICAL = 40;\n    uint8 private constant STATUS_CODE_LATE_OTHER = 50;\n\n    address private contractOwner;          // Account used to deploy contract\n    \n  \n    struct Flight {\n        bool isRegistered;\n        uint8 statusCode;\n        uint256 updatedTimestamp;        \n        address airline;\n    }\n    mapping(bytes32 => Flight) private flights;\n\n    struct ChangeOperationalStatusVote {\n        mapping(address => bool) admin;\n        uint8 count;\n    }\n    mapping(uint => ChangeOperationalStatusVote) changeOperationalStatus;\n    uint8 changeStatusEvents;\n    uint8 public requiredVotesForStatusChange;\n\n    event OperationStatusChange(bool status);\n    event RegisterAirline(string airline);\n    event FundAirline(string airline);\n    event RegisterFlight(string airline);\n    event InsureFlight(string airline);\n\n \n    /********************************************************************************************/\n    /*                                       FUNCTION MODIFIERS                                 */\n    /********************************************************************************************/\n\n    // Modifiers help avoid duplication of code. They are typically used to validate something\n    // before a function is allowed to be executed.\n\n    /**\n    * @dev Modifier that requires the \"operational\" boolean variable to be \"true\"\n    *      This is used on all state changing functions to pause the contract in \n    *      the event there is an issue that needs to be fixed\n    */\n    modifier requireIsOperational() \n    {\n         // Modify to call data contract's status\n       require(dataContract.isOperational() == true, \"Contract is not Operational\");\n        _;  // All modifiers require an \"_\" which indicates where the function body will be added\n    }\n\n    modifier requireNotAlreadyChangedOperationalStatus()\n    {   \n        require(!changeOperationalStatus[changeStatusEvents].admin[msg.sender], \"Already voted!\");\n        _;\n    }\n\n    /**\n    * @dev Modifier that requires the \"ContractOwner\" account to be the function caller\n    */\n    modifier requireContractOwner()\n    {\n        require(msg.sender == contractOwner, \"Caller is not contract owner\");\n        _;\n    }\n   \n    modifier requireFundedAirlineOwner()\n    {\n        require(dataContract.checkIsFundedOwner(msg.sender), \"Caller is not funded airline owner\");\n        _;\n    }\n\n    /********************************************************************************************/\n    /*                                       CONSTRUCTOR                                        */\n    /********************************************************************************************/\n\n    /**\n    * @dev Contract constructor\n    *\n    */\n    constructor\n                                (\n                                    address dataContractAddress,\n                                    string memory airlineName\n                                ) \n    {\n        contractOwner = msg.sender;\n        changeStatusEvents = 0;\n\n        dataContract = FlightSuretyData(dataContractAddress);\n        dataAddress = dataContractAddress;\n        \n        FlightSuretyData.Airline memory firstAirline;\n        firstAirline.owner = msg.sender;\n        firstAirline.registered = true;\n        firstAirline.name = airlineName;\n        dataContract.updateAirline(airlineName, firstAirline, msg.sender, false);\n    }\n\n    /********************************************************************************************/\n    /*                                       UTILITY FUNCTIONS                                  */\n    /********************************************************************************************/\n\n    function isOperational() \n                            public \n                            view \n                            returns(bool) \n    {\n        bool operational = dataContract.isOperational();\n        return operational;\n    }\n\n    function setIsOperational(bool updatedState) external requireFundedAirlineOwner requireNotAlreadyChangedOperationalStatus {\n        require(updatedState != dataContract.isOperational(), \"Operation state is already what you've requested\");\n        changeOperationalStatus[changeStatusEvents].count += 1;\n        changeOperationalStatus[changeStatusEvents].admin[msg.sender] = true;\n\n        uint8 activeAirlinesNumber = dataContract.getAirlineOwnersCount();\n\n        uint8 requiredTotalVotes = uint8(activeAirlinesNumber / 2);\n        uint8 currentCount = changeOperationalStatus[changeStatusEvents].count;\n\n        if(requiredTotalVotes > currentCount){\n            requiredVotesForStatusChange = requiredTotalVotes - currentCount;\n        } else {\n            requiredVotesForStatusChange = 0;\n            changeStatusEvents += 1;\n            dataContract.setOperatingStatus(updatedState, msg.sender);\n            emit OperationStatusChange(updatedState);\n        }\n\n    }\n\n    function getBalance() public view returns(uint256){\n        return dataContract.getBalance();\n    }\n    function getAirlinesList() public view returns(string[] memory) {\n        return dataContract.getAirlinesList();\n    }    \n\n    function getRegisteredAirlinesCount() public view returns(uint8){\n        return dataContract.getRegisteredAirlinesCount();\n    }\n   \n    function getAirlineOwnersCount() public view returns(uint8){\n        return dataContract.getAirlineOwnersCount();\n    }\n \n    \n    function getAirlineDetails(string memory airline) public view returns(FlightSuretyData.Airline memory airlineDetails) {\n        return dataContract.getAirlineDetails(airline);\n    }     \n\n    /********************************************************************************************/\n    /*                                     SMART CONTRACT FUNCTIONS                             */\n    /********************************************************************************************/\n\n  \n   /**\n    * @dev Add an airline to the registration queue\n    *\n    */   \n    function registerAirline\n                            (   \n                                string memory airline,\n                                address owner\n                            )\n                            external\n    {\n        require(dataContract.checkIsFundedOwner(msg.sender), \"Only funded owners can register new owners\");\n        FlightSuretyData.Airline memory oldData = dataContract.getAirlineDetails(airline);\n        require(oldData.owner == address(0), \"This airline has already been claimed\");\n        \n        uint activeAirlinesNumber = dataContract.getAirlineOwnersCount();\n        uint registeredAirlinesNumber = dataContract.getRegisteredAirlinesCount();\n        FlightSuretyData.Airline memory airlineDetails;\n        airlineDetails.owner = owner;\n        airlineDetails.name = airline;\n        \n        if(registeredAirlinesNumber < 4){\n            airlineDetails.registered = true;\n        } else {\n            uint8 requiredVotesForAirlineApproval = uint8(activeAirlinesNumber / 2);\n            \n            if(requiredVotesForAirlineApproval < 2){\n                airlineDetails.requiredVotes = 2;\n            } else {\n                airlineDetails.requiredVotes = requiredVotesForAirlineApproval;\n            }\n\n            airlineDetails.votes = 1;\n        }\n        dataContract.updateAirline(airline, airlineDetails, msg.sender, true);\n        if(airlineDetails.registered){\n            emit RegisterAirline(airline);\n        }\n    }\n\n    function checkHasVoted(string memory airline) external view returns (bool) {\n        return dataContract.checkHasVoted(airline, msg.sender);\n    }\n \n    function approveAirline\n                            (   \n                                string memory airline\n                            )\n                            external\n    {\n        require(dataContract.checkIsFundedOwner(msg.sender), \"Only funded owners can approve new owners\");\n        require(dataContract.checkHasVoted(airline, msg.sender) == false, \"You've already approved this\");\n        \n        FlightSuretyData.Airline memory oldData = dataContract.getAirlineDetails(airline);\n        FlightSuretyData.Airline memory airlineDetails = oldData;\n        airlineDetails.votes += 1;\n        \n        if (airlineDetails.votes == airlineDetails.requiredVotes){\n            airlineDetails.registered = true;\n        }\n        dataContract.updateAirline(airline, airlineDetails, msg.sender, true);\n        if(airlineDetails.registered){\n            emit RegisterAirline(airline);\n        }\n    }\n\n    uint256 public constant AIRLINE_FUNDING_MINIMUM = 1 ether;\n\n    function fundAirline(string memory airline) payable public {\n        require(msg.value >= AIRLINE_FUNDING_MINIMUM, \"Must pay at least 1 ether to fund airline!\");\n        dataContract.fund{value: msg.value}(airline, msg.sender);\n        emit FundAirline(airline);\n    }\n\n    function getRegisteredFlight(string memory flight) public view returns (FlightSuretyData.Flight memory flightData) {\n        flightData = dataContract.getRegisteredFlight(flight);\n        return flightData;\n    }\n    \n\n   /**\n    * @dev Register a future flight for insuring.\n    *\n    */  \n    function registerFlight\n                                (\n                                    string memory flight\n                                )\n                                external\n    {\n        require(dataContract.getRegisteredFlight(flight).registered != true,\"Flight mustn't be registered already\");\n        dataContract.registerFlight(flight);\n        emit RegisterFlight(flight);\n    }\n   \n    uint256 public constant FLIGHT_INSURANCE_MAXIMUM = 0.1 ether;\n\n    function buyInsurance\n                                (\n                                    string memory flight\n                                )\n                                external\n                                payable\n    {\n        require(msg.value > 0,\"Can't insure for 0\");\n        require(msg.value <= FLIGHT_INSURANCE_MAXIMUM,\"Can't insure for more than 0.1 ether \");\n        require(dataContract.getRegisteredFlight(flight).registered == true,\"Flight must be registered\");\n        require(dataContract.isAlreadyInsured(msg.sender, flight) != true, \"Already bought insurance\");\n        dataContract.buy{value: msg.value}(flight, msg.sender);\n        emit InsureFlight(flight);\n    }\n\n    function getRefund() external payable {\n        dataContract.pay(msg.sender);\n    }\n    \n   /**\n    * @dev Called after oracle has updated flight status\n    *\n    */  \n    function processFlightStatus\n                                (\n                                    string memory flight,\n                                    uint8 statusCode\n                                )\n                                internal\n    {\n        dataContract.updateFlightStatus(flight, statusCode);\n    }\n\n\n    // Generate a request for oracles to fetch flight information\n    function fetchFlightStatus\n                        (\n                            string memory flight\n                        )\n                        external\n    {\n        uint8 index = getRandomIndex(msg.sender);\n\n        // Generate a unique key for storing the request\n        bytes32 key = keccak256(abi.encodePacked(index, flight));\n        oracleResponses[key].requester = msg.sender;\n        oracleResponses[key].isOpen = true;\n\n        emit OracleRequest(index, flight);\n    } \n\n\n// region ORACLE MANAGEMENT\n\n    // Incremented to add pseudo-randomness at various points\n    uint8 private nonce = 0;    \n\n    // Fee to be paid when registering oracle\n    uint256 public constant REGISTRATION_FEE = 0.1 ether;\n\n    // Number of oracles that must respond for valid status\n    uint256 private constant MIN_RESPONSES = 3;\n\n\n    struct Oracle {\n        bool isRegistered;\n        uint8[3] indexes;        \n    }\n\n    // Track all registered oracles\n    mapping(address => Oracle) private oracles;\n\n    // Model for responses from oracles\n    struct ResponseInfo {\n        address requester;                              // Account that requested status\n        bool isOpen;                                    // If open, oracle responses are accepted\n        mapping(uint8 => address[]) responses;          // Mapping key is the status code reported\n                                                        // This lets us group responses and identify\n                                                        // the response that majority of the oracles\n    }\n\n    // Track all oracle responses\n    // Key = hash(index, flight, timestamp)\n    mapping(bytes32 => ResponseInfo) private oracleResponses;\n\n    // Event fired each time an oracle submits a response\n    event FlightStatusInfo(string flight,  uint8 status);\n\n    event OracleReport( string flight, uint8 status);\n\n    // Event fired when flight status request is submitted\n    // Oracles track this and if they have a matching index\n    // they fetch data and submit a response\n    event OracleRequest(uint8 index, string flight);\n\n\n    // Register an oracle with the contract\n    function registerOracle\n                            (\n                            )\n                            external\n                            payable\n    {\n        // Require registration fee\n        require(msg.value >= REGISTRATION_FEE, \"Registration fee is required\");\n\n        uint8[3] memory indexes = generateIndexes(msg.sender);\n\n        oracles[msg.sender] = Oracle({\n                                        isRegistered: true,\n                                        indexes: indexes\n                                    });\n\n                                    dataContract.receiveFunds{value: msg.value}();\n    }\n    function getOracle\n                            (\n                            )\n                            external\n                            view\n                            returns (Oracle memory)\n    {\n       return oracles[msg.sender];\n    }\n\n    function getMyIndexes\n                            (\n                            )\n                            view\n                            external\n                            returns(uint8[3] memory)\n    {\n        require(oracles[msg.sender].isRegistered, \"Not registered as an oracle\");\n\n        return oracles[msg.sender].indexes;\n    }\n\n\n\n\n    // Called by oracle when a response is available to an outstanding request\n    // For the response to be accepted, there must be a pending request that is open\n    // and matches one of the three Indexes randomly assigned to the oracle at the\n    // time of registration (i.e. uninvited oracles are not welcome)\n    function submitOracleResponse\n                        (\n                            uint8 index,\n                            string memory flight,\n                            uint8 statusCode\n                        )\n                        external\n    {\n        require((oracles[msg.sender].indexes[0] == index) || (oracles[msg.sender].indexes[1] == index) || (oracles[msg.sender].indexes[2] == index), \"Index does not match oracle request\");\n\n\n        bytes32 key = keccak256(abi.encodePacked(index, flight)); \n        require(oracleResponses[key].isOpen, \"Flight or timestamp do not match oracle request\");\n\n        oracleResponses[key].responses[statusCode].push(msg.sender);\n\n        // Information isn't considered verified until at least MIN_RESPONSES\n        // oracles respond with the *** same *** information\n        emit OracleReport( flight, statusCode);\n        if (oracleResponses[key].responses[statusCode].length >= MIN_RESPONSES) {\n\n            emit FlightStatusInfo( flight, statusCode);\n\n            // Handle flight status as appropriate\n            processFlightStatus(flight, statusCode);\n        } else {\n            processFlightStatus(flight, 10);\n        }\n    }\n\n\n    function getFlightKey\n                        (\n                            address airline,\n                            string memory flight,\n                            uint256 timestamp\n                        )\n                        pure\n                        internal\n                        returns(bytes32) \n    {\n        return keccak256(abi.encodePacked(airline, flight, timestamp));\n    }\n\n    // Returns array of three non-duplicating integers from 0-9\n    function generateIndexes\n                            (                       \n                                address account         \n                            )\n                            internal\n                            returns(uint8[3] memory)\n    {\n        uint8[3] memory indexes;\n        indexes[0] = getRandomIndex(account);\n        \n        indexes[1] = indexes[0];\n        while(indexes[1] == indexes[0]) {\n            indexes[1] = getRandomIndex(account);\n        }\n\n        indexes[2] = indexes[1];\n        while((indexes[2] == indexes[0]) || (indexes[2] == indexes[1])) {\n            indexes[2] = getRandomIndex(account);\n        }\n\n        return indexes;\n    }\n\n    // Returns array of three non-duplicating integers from 0-9\n    function getRandomIndex\n                            (\n                                address account\n                            )\n                            internal\n                            returns (uint8)\n    {\n        uint8 maxValue = 10;\n\n        // Pseudo random number...the incrementing nonce adds variation\n        uint8 random = uint8(uint256(keccak256(abi.encodePacked(blockhash(block.number - nonce++), account))) % maxValue);\n\n        if (nonce > 250) {\n            nonce = 0;  // Can only fetch blockhashes for last 256 blocks so we adapt\n        }\n\n        return random;\n    }\n\n// endregion\n\n}\n\n\n",
  "sourcePath": "/home/richardmands/_cinderhouse/crypto/flightSurety/contracts/FlightSuretyApp.sol",
  "compiler": {
    "name": "solc",
    "version": "0.8.0+commit.c7dfd78e.Emscripten.clang"
  },
  "schemaVersion": "3.4.3",
  "updatedAt": "2021-09-02T11:28:02.998Z",
  "networkType": "ethereum",
  "devdoc": {
    "kind": "dev",
    "methods": {
      "constructor": {
        "details": "Contract constructor"
      },
      "registerAirline(string,address)": {
        "details": "Add an airline to the registration queue"
      },
      "registerFlight(string)": {
        "details": "Register a future flight for insuring."
      }
    },
    "version": 1
  },
  "userdoc": {
    "kind": "user",
    "methods": {},
    "version": 1
  }
}