{
  "contractName": "SolnSquareVerifier",
  "abi": [
    {
      "constant": true,
      "inputs": [
        {
          "name": "interfaceId",
          "type": "bytes4"
        }
      ],
      "name": "supportsInterface",
      "outputs": [
        {
          "name": "",
          "type": "bool"
        }
      ],
      "payable": false,
      "stateMutability": "view",
      "type": "function"
    },
    {
      "constant": false,
      "inputs": [
        {
          "name": "pauseState",
          "type": "bool"
        }
      ],
      "name": "pause",
      "outputs": [],
      "payable": false,
      "stateMutability": "nonpayable",
      "type": "function"
    },
    {
      "constant": true,
      "inputs": [],
      "name": "name",
      "outputs": [
        {
          "name": "",
          "type": "string"
        }
      ],
      "payable": false,
      "stateMutability": "view",
      "type": "function"
    },
    {
      "constant": true,
      "inputs": [
        {
          "name": "tokenId",
          "type": "uint256"
        }
      ],
      "name": "getApproved",
      "outputs": [
        {
          "name": "",
          "type": "address"
        }
      ],
      "payable": false,
      "stateMutability": "view",
      "type": "function"
    },
    {
      "constant": false,
      "inputs": [
        {
          "name": "to",
          "type": "address"
        },
        {
          "name": "tokenId",
          "type": "uint256"
        }
      ],
      "name": "approve",
      "outputs": [],
      "payable": false,
      "stateMutability": "nonpayable",
      "type": "function"
    },
    {
      "constant": true,
      "inputs": [],
      "name": "totalSupply",
      "outputs": [
        {
          "name": "",
          "type": "uint256"
        }
      ],
      "payable": false,
      "stateMutability": "view",
      "type": "function"
    },
    {
      "constant": false,
      "inputs": [
        {
          "name": "from",
          "type": "address"
        },
        {
          "name": "to",
          "type": "address"
        },
        {
          "name": "tokenId",
          "type": "uint256"
        }
      ],
      "name": "transferFrom",
      "outputs": [],
      "payable": false,
      "stateMutability": "nonpayable",
      "type": "function"
    },
    {
      "constant": false,
      "inputs": [
        {
          "name": "_myid",
          "type": "bytes32"
        },
        {
          "name": "_result",
          "type": "string"
        }
      ],
      "name": "__callback",
      "outputs": [],
      "payable": false,
      "stateMutability": "nonpayable",
      "type": "function"
    },
    {
      "constant": true,
      "inputs": [
        {
          "name": "owner",
          "type": "address"
        },
        {
          "name": "index",
          "type": "uint256"
        }
      ],
      "name": "tokenOfOwnerByIndex",
      "outputs": [
        {
          "name": "",
          "type": "uint256"
        }
      ],
      "payable": false,
      "stateMutability": "view",
      "type": "function"
    },
    {
      "constant": false,
      "inputs": [
        {
          "name": "_myid",
          "type": "bytes32"
        },
        {
          "name": "_result",
          "type": "string"
        },
        {
          "name": "_proof",
          "type": "bytes"
        }
      ],
      "name": "__callback",
      "outputs": [],
      "payable": false,
      "stateMutability": "nonpayable",
      "type": "function"
    },
    {
      "constant": false,
      "inputs": [
        {
          "name": "to",
          "type": "address"
        },
        {
          "name": "tokenId",
          "type": "uint256"
        }
      ],
      "name": "mint",
      "outputs": [
        {
          "name": "",
          "type": "bool"
        }
      ],
      "payable": false,
      "stateMutability": "nonpayable",
      "type": "function"
    },
    {
      "constant": false,
      "inputs": [
        {
          "name": "from",
          "type": "address"
        },
        {
          "name": "to",
          "type": "address"
        },
        {
          "name": "tokenId",
          "type": "uint256"
        }
      ],
      "name": "safeTransferFrom",
      "outputs": [],
      "payable": false,
      "stateMutability": "nonpayable",
      "type": "function"
    },
    {
      "constant": true,
      "inputs": [
        {
          "components": [
            {
              "components": [
                {
                  "name": "X",
                  "type": "uint256"
                },
                {
                  "name": "Y",
                  "type": "uint256"
                }
              ],
              "name": "a",
              "type": "tuple"
            },
            {
              "components": [
                {
                  "name": "X",
                  "type": "uint256[2]"
                },
                {
                  "name": "Y",
                  "type": "uint256[2]"
                }
              ],
              "name": "b",
              "type": "tuple"
            },
            {
              "components": [
                {
                  "name": "X",
                  "type": "uint256"
                },
                {
                  "name": "Y",
                  "type": "uint256"
                }
              ],
              "name": "c",
              "type": "tuple"
            }
          ],
          "name": "proof",
          "type": "tuple"
        },
        {
          "name": "input",
          "type": "uint256[2]"
        }
      ],
      "name": "verifyTx",
      "outputs": [
        {
          "name": "r",
          "type": "bool"
        }
      ],
      "payable": false,
      "stateMutability": "view",
      "type": "function"
    },
    {
      "constant": true,
      "inputs": [
        {
          "name": "index",
          "type": "uint256"
        }
      ],
      "name": "tokenByIndex",
      "outputs": [
        {
          "name": "",
          "type": "uint256"
        }
      ],
      "payable": false,
      "stateMutability": "view",
      "type": "function"
    },
    {
      "constant": true,
      "inputs": [
        {
          "name": "tokenId",
          "type": "uint256"
        }
      ],
      "name": "ownerOf",
      "outputs": [
        {
          "name": "",
          "type": "address"
        }
      ],
      "payable": false,
      "stateMutability": "view",
      "type": "function"
    },
    {
      "constant": true,
      "inputs": [
        {
          "name": "owner",
          "type": "address"
        }
      ],
      "name": "balanceOf",
      "outputs": [
        {
          "name": "",
          "type": "uint256"
        }
      ],
      "payable": false,
      "stateMutability": "view",
      "type": "function"
    },
    {
      "constant": true,
      "inputs": [],
      "name": "owner",
      "outputs": [
        {
          "name": "",
          "type": "address"
        }
      ],
      "payable": false,
      "stateMutability": "view",
      "type": "function"
    },
    {
      "constant": true,
      "inputs": [],
      "name": "symbol",
      "outputs": [
        {
          "name": "",
          "type": "string"
        }
      ],
      "payable": false,
      "stateMutability": "view",
      "type": "function"
    },
    {
      "constant": false,
      "inputs": [
        {
          "name": "to",
          "type": "address"
        },
        {
          "name": "approved",
          "type": "bool"
        }
      ],
      "name": "setApprovalForAll",
      "outputs": [],
      "payable": false,
      "stateMutability": "nonpayable",
      "type": "function"
    },
    {
      "constant": false,
      "inputs": [
        {
          "name": "from",
          "type": "address"
        },
        {
          "name": "to",
          "type": "address"
        },
        {
          "name": "tokenId",
          "type": "uint256"
        },
        {
          "name": "_data",
          "type": "bytes"
        }
      ],
      "name": "safeTransferFrom",
      "outputs": [],
      "payable": false,
      "stateMutability": "nonpayable",
      "type": "function"
    },
    {
      "constant": true,
      "inputs": [
        {
          "name": "tokenId",
          "type": "uint256"
        }
      ],
      "name": "tokenURI",
      "outputs": [
        {
          "name": "",
          "type": "string"
        }
      ],
      "payable": false,
      "stateMutability": "view",
      "type": "function"
    },
    {
      "constant": true,
      "inputs": [
        {
          "name": "owner",
          "type": "address"
        },
        {
          "name": "operator",
          "type": "address"
        }
      ],
      "name": "isApprovedForAll",
      "outputs": [
        {
          "name": "",
          "type": "bool"
        }
      ],
      "payable": false,
      "stateMutability": "view",
      "type": "function"
    },
    {
      "constant": false,
      "inputs": [
        {
          "name": "newOwner",
          "type": "address"
        }
      ],
      "name": "transferOwnership",
      "outputs": [],
      "payable": false,
      "stateMutability": "nonpayable",
      "type": "function"
    },
    {
      "anonymous": false,
      "inputs": [
        {
          "indexed": false,
          "name": "",
          "type": "address"
        },
        {
          "indexed": false,
          "name": "",
          "type": "uint256"
        }
      ],
      "name": "NewSolution",
      "type": "event"
    },
    {
      "anonymous": false,
      "inputs": [
        {
          "indexed": true,
          "name": "from",
          "type": "address"
        },
        {
          "indexed": true,
          "name": "to",
          "type": "address"
        },
        {
          "indexed": true,
          "name": "tokenId",
          "type": "uint256"
        }
      ],
      "name": "Transfer",
      "type": "event"
    },
    {
      "anonymous": false,
      "inputs": [
        {
          "indexed": true,
          "name": "owner",
          "type": "address"
        },
        {
          "indexed": true,
          "name": "approved",
          "type": "address"
        },
        {
          "indexed": true,
          "name": "tokenId",
          "type": "uint256"
        }
      ],
      "name": "Approval",
      "type": "event"
    },
    {
      "anonymous": false,
      "inputs": [
        {
          "indexed": true,
          "name": "owner",
          "type": "address"
        },
        {
          "indexed": true,
          "name": "operator",
          "type": "address"
        },
        {
          "indexed": false,
          "name": "approved",
          "type": "bool"
        }
      ],
      "name": "ApprovalForAll",
      "type": "event"
    },
    {
      "anonymous": false,
      "inputs": [
        {
          "indexed": false,
          "name": "pausedState",
          "type": "bool"
        }
      ],
      "name": "Pause",
      "type": "event"
    },
    {
      "anonymous": false,
      "inputs": [
        {
          "indexed": false,
          "name": "newOwner",
          "type": "address"
        }
      ],
      "name": "HasNewOwner",
      "type": "event"
    },
    {
      "constant": false,
      "inputs": [
        {
          "name": "owner",
          "type": "address"
        },
        {
          "name": "id",
          "type": "uint256"
        },
        {
          "components": [
            {
              "components": [
                {
                  "name": "X",
                  "type": "uint256"
                },
                {
                  "name": "Y",
                  "type": "uint256"
                }
              ],
              "name": "a",
              "type": "tuple"
            },
            {
              "components": [
                {
                  "name": "X",
                  "type": "uint256[2]"
                },
                {
                  "name": "Y",
                  "type": "uint256[2]"
                }
              ],
              "name": "b",
              "type": "tuple"
            },
            {
              "components": [
                {
                  "name": "X",
                  "type": "uint256"
                },
                {
                  "name": "Y",
                  "type": "uint256"
                }
              ],
              "name": "c",
              "type": "tuple"
            }
          ],
          "name": "proof",
          "type": "tuple"
        },
        {
          "name": "input",
          "type": "uint256[2]"
        }
      ],
      "name": "mintNFT",
      "outputs": [
        {
          "name": "",
          "type": "bool"
        }
      ],
      "payable": false,
      "stateMutability": "nonpayable",
      "type": "function"
    }
  ],
  "bytecode": "0x60806040526040518060400160405280600881526020017f43617073746f6e650000000000000000000000000000000000000000000000008152506040518060400160405280600381526020017f524d4e00000000000000000000000000000000000000000000000000000000008152506040518060600160405280603f815260200162004337603f9139336000806101000a81548173ffffffffffffffffffffffffffffffffffffffff021916908373ffffffffffffffffffffffffffffffffffffffff1602179055507f9d410ac948b4b33520548229283477f4ef024954d67056116e4b39970bde363333604051620000fb919062000405565b60405180910390a1620001156000620001c960201b60201c565b6200012d6301ffc9a760e01b6200026960201b60201c565b620001456380ac58cd60e01b6200026960201b60201c565b6200015d63780e9d6360e01b6200026960201b60201c565b82601090805190602001906200017592919062000334565b5081601190805190602001906200018e92919062000334565b508060129080519060200190620001a792919062000334565b50620001c0635b5e139f60e01b6200026960201b60201c565b505050620004a7565b620001d96200030b60201b60201c565b73ffffffffffffffffffffffffffffffffffffffff163373ffffffffffffffffffffffffffffffffffffffff161415156200021357600080fd5b80600060146101000a81548160ff0219169083151502179055507f9422424b175dda897495a07b091ef74a3ef715cf6d866fc972954c1c7f459304816040516200025e919062000422565b60405180910390a150565b63ffffffff60e01b817bffffffffffffffffffffffffffffffffffffffffffffffffffffffff1916141515156200029f57600080fd5b6001806000837bffffffffffffffffffffffffffffffffffffffffffffffffffffffff19167bffffffffffffffffffffffffffffffffffffffffffffffffffffffff1916815260200190815260200160002060006101000a81548160ff02191690831515021790555050565b60008060009054906101000a900473ffffffffffffffffffffffffffffffffffffffff16905090565b828054600181600116156101000203166002900490600052602060002090601f016020900481019282601f106200037757805160ff1916838001178555620003a8565b82800160010185558215620003a8579182015b82811115620003a75782518255916020019190600101906200038a565b5b509050620003b79190620003bb565b5090565b620003e091905b80821115620003dc576000816000905550600101620003c2565b5090565b90565b620003ee816200046b565b82525050565b620003ff816200043f565b82525050565b60006020820190506200041c6000830184620003e3565b92915050565b6000602082019050620004396000830184620003f4565b92915050565b60008115159050919050565b600073ffffffffffffffffffffffffffffffffffffffff82169050919050565b600062000478826200047f565b9050919050565b60006200048c8262000493565b9050919050565b6000620004a0826200044b565b9050919050565b613e8080620004b76000396000f3fe608060405234801561001057600080fd5b50600436106101585760003560e01c806342842e0e116100c357806395d89b411161007c57806395d89b411461040f578063a22cb4651461042d578063b88d4fde14610449578063c87b56dd14610465578063e985e9c514610495578063f2fde38b146104c557610158565b806342842e0e1461031557806343cd76fc146103315780634f6ccce7146103615780636352211e1461039157806370a08231146103c15780638da5cb5b146103f157610158565b80631fd960da116101155780631fd960da1461023157806323b872dd1461026157806327dc297e1461027d5780632f745c591461029957806338bbfa50146102c957806340c10f19146102e557610158565b806301ffc9a71461015d57806302329a291461018d57806306fdde03146101a9578063081812fc146101c7578063095ea7b3146101f757806318160ddd14610213575b600080fd5b6101776004803603610172919081019061369d565b6104e1565b6040516101849190613ad8565b60405180910390f35b6101a760048036036101a291908101906135a1565b610549565b005b6101b16105de565b6040516101be9190613af3565b60405180910390f35b6101e160048036036101dc919081019061372d565b61067c565b6040516101ee9190613a48565b60405180910390f35b610211600480360361020c9190810190613500565b6106b9565b005b61021b6108bc565b6040516102289190613b77565b60405180910390f35b61024b6004803603610246919081019061353c565b6108c9565b6040516102589190613ad8565b60405180910390f35b61027b600480360361027691908101906133fa565b610a97565b005b610297600480360361029291908101906135ca565b610abc565b005b6102b360048036036102ae9190810190613500565b610aff565b6040516102c09190613b77565b60405180910390f35b6102e360048036036102de919081019061361e565b610b76565b005b6102ff60048036036102fa9190810190613500565b610b7b565b60405161030c9190613ad8565b60405180910390f35b61032f600480360361032a91908101906133fa565b610bdb565b005b61034b600480360361034691908101906136ef565b610bfb565b6040516103589190613ad8565b60405180910390f35b61037b6004803603610376919081019061372d565b610ca6565b6040516103889190613b77565b60405180910390f35b6103ab60048036036103a6919081019061372d565b610cde565b6040516103b89190613a48565b60405180910390f35b6103db60048036036103d69190810190613395565b610d1b565b6040516103e89190613b77565b60405180910390f35b6103f9610d6b565b6040516104069190613a48565b60405180910390f35b610417610d94565b6040516104249190613af3565b60405180910390f35b610447600480360361044291908101906134c4565b610e32565b005b610463600480360361045e9190810190613449565b610f6a565b005b61047f600480360361047a919081019061372d565b610f92565b60405161048c9190613b15565b60405180910390f35b6104af60048036036104aa91908101906133be565b61105b565b6040516104bc9190613ad8565b60405180910390f35b6104df60048036036104da9190810190613395565b6110ef565b005b600060016000837bffffffffffffffffffffffffffffffffffffffffffffffffffffffff19167bffffffffffffffffffffffffffffffffffffffffffffffffffffffff1916815260200190815260200160002060009054906101000a900460ff169050919050565b610551610d6b565b73ffffffffffffffffffffffffffffffffffffffff163373ffffffffffffffffffffffffffffffffffffffff1614151561058a57600080fd5b80600060146101000a81548160ff0219169083151502179055507f9422424b175dda897495a07b091ef74a3ef715cf6d866fc972954c1c7f459304816040516105d39190613ad8565b60405180910390a150565b60108054600181600116156101000203166002900480601f0160208091040260200160405190810160405280929190818152602001828054600181600116156101000203166002900480156106745780601f1061064957610100808354040283529160200191610674565b820191906000526020600020905b81548152906001019060200180831161065757829003601f168201915b505050505081565b60006003600083815260200190815260200160002060009054906101000a900473ffffffffffffffffffffffffffffffffffffffff169050919050565b8173ffffffffffffffffffffffffffffffffffffffff166002600083815260200190815260200160002060009054906101000a900473ffffffffffffffffffffffffffffffffffffffff1673ffffffffffffffffffffffffffffffffffffffff161415151561072757600080fd5b3373ffffffffffffffffffffffffffffffffffffffff166002600083815260200190815260200160002060009054906101000a900473ffffffffffffffffffffffffffffffffffffffff1673ffffffffffffffffffffffffffffffffffffffff1614806107cd57506107cc6002600083815260200190815260200160002060009054906101000a900473ffffffffffffffffffffffffffffffffffffffff163361105b565b5b15156107d857600080fd5b816003600083815260200190815260200160002060006101000a81548173ffffffffffffffffffffffffffffffffffffffff021916908373ffffffffffffffffffffffffffffffffffffffff160217905550808273ffffffffffffffffffffffffffffffffffffffff166002600084815260200190815260200160002060009054906101000a900473ffffffffffffffffffffffffffffffffffffffff1673ffffffffffffffffffffffffffffffffffffffff167f8c5be1e5ebec7d5bd14f71427d1e84f3dd0314c0f7b2291e5b200ac8c7c3b92560405160405180910390a45050565b6000600880549050905090565b60006108d58383610bfb565b1515610916576040517f08c379a000000000000000000000000000000000000000000000000000000000815260040161090d90613b57565b60405180910390fd5b60008284600001516000015185600001516020015186602001516000015187602001516020015188604001516000015189604001516020015160405160200161096597969594939291906139c7565b604051602081830303815290604052805190602001209050600073ffffffffffffffffffffffffffffffffffffffff166015600083815260200190815260200160002060009054906101000a900473ffffffffffffffffffffffffffffffffffffffff1673ffffffffffffffffffffffffffffffffffffffff16141515610a21576040517f08c379a0000000000000000000000000000000000000000000000000000000008152600401610a1890613b37565b60405180910390fd5b856015600083815260200190815260200160002060006101000a81548173ffffffffffffffffffffffffffffffffffffffff021916908373ffffffffffffffffffffffffffffffffffffffff160217905550610a7c86611207565b6000610a888787610b7b565b90508092505050949350505050565b610aa13382611305565b1515610aac57600080fd5b610ab783838361139a565b505050565b610afb828260006040519080825280601f01601f191660200182016040528015610af55781602001600182028038833980820191505090505b50610b76565b5050565b6000610b0a83610d1b565b82101515610b1757600080fd5b600660008473ffffffffffffffffffffffffffffffffffffffff1673ffffffffffffffffffffffffffffffffffffffff16815260200190815260200160002082815481101515610b6357fe5b9060005260206000200154905092915050565b505050565b6000610b85610d6b565b73ffffffffffffffffffffffffffffffffffffffff163373ffffffffffffffffffffffffffffffffffffffff16141515610bbe57600080fd5b610bc883836113be565b610bd1826113df565b6001905092915050565b610bf683838360405180602001604052806000815250610f6a565b505050565b600060606002604051908082528060200260200182016040528015610c2f5781602001602082028038833980820191505090505b50905060008090505b6002811015610c7d578381600281101515610c4f57fe5b60200201518282815181101515610c6257fe5b90602001906020020181815250508080600101915050610c38565b506000610c8a82866114cf565b1415610c9a576001915050610ca0565b60009150505b92915050565b6000610cb06108bc565b82101515610cbd57600080fd5b600882815481101515610ccc57fe5b90600052602060002001549050919050565b60006002600083815260200190815260200160002060009054906101000a900473ffffffffffffffffffffffffffffffffffffffff169050919050565b6000610d64600460008473ffffffffffffffffffffffffffffffffffffffff1673ffffffffffffffffffffffffffffffffffffffff168152602001908152602001600020611657565b9050919050565b60008060009054906101000a900473ffffffffffffffffffffffffffffffffffffffff16905090565b60118054600181600116156101000203166002900480601f016020809104026020016040519081016040528092919081815260200182805460018160011615610100020316600290048015610e2a5780601f10610dff57610100808354040283529160200191610e2a565b820191906000526020600020905b815481529060010190602001808311610e0d57829003601f168201915b505050505081565b3373ffffffffffffffffffffffffffffffffffffffff168273ffffffffffffffffffffffffffffffffffffffff1614151515610e6d57600080fd5b80600560003373ffffffffffffffffffffffffffffffffffffffff1673ffffffffffffffffffffffffffffffffffffffff16815260200190815260200160002060008473ffffffffffffffffffffffffffffffffffffffff1673ffffffffffffffffffffffffffffffffffffffff16815260200190815260200160002060006101000a81548160ff0219169083151502179055508173ffffffffffffffffffffffffffffffffffffffff163373ffffffffffffffffffffffffffffffffffffffff167f17307eab39ab6107e8899845ad3d59bd9653f200f220920489ca2b5937696c3183604051610f5e9190613ad8565b60405180910390a35050565b610f75848484610a97565b610f8184848484611665565b1515610f8c57600080fd5b50505050565b6060610f9d8261177e565b1515610fa857600080fd5b601360008381526020019081526020016000208054600181600116156101000203166002900480601f01602080910402602001604051908101604052809291908181526020018280546001816001161561010002031660029004801561104f5780601f106110245761010080835404028352916020019161104f565b820191906000526020600020905b81548152906001019060200180831161103257829003601f168201915b50505050509050919050565b6000600560008473ffffffffffffffffffffffffffffffffffffffff1673ffffffffffffffffffffffffffffffffffffffff16815260200190815260200160002060008373ffffffffffffffffffffffffffffffffffffffff1673ffffffffffffffffffffffffffffffffffffffff16815260200190815260200160002060009054906101000a900460ff16905092915050565b6110f7610d6b565b73ffffffffffffffffffffffffffffffffffffffff163373ffffffffffffffffffffffffffffffffffffffff1614151561113057600080fd5b600073ffffffffffffffffffffffffffffffffffffffff168173ffffffffffffffffffffffffffffffffffffffff161415151561116c57600080fd5b806000806101000a81548173ffffffffffffffffffffffffffffffffffffffff021916908373ffffffffffffffffffffffffffffffffffffffff1602179055507f9d410ac948b4b33520548229283477f4ef024954d67056116e4b39970bde36336000809054906101000a900473ffffffffffffffffffffffffffffffffffffffff166040516111fc9190613a48565b60405180910390a150565b61120f612e61565b604051806040016040528060148054905081526020018373ffffffffffffffffffffffffffffffffffffffff168152509050601481908060018154018082558091505090600182039060005260206000209060020201600090919290919091506000820151816000015560208201518160010160006101000a81548173ffffffffffffffffffffffffffffffffffffffff021916908373ffffffffffffffffffffffffffffffffffffffff1602179055505050507f75668a51d8d955cfed0b332555d14bf4fdffc606a9d49484217c917011e25c79336014805490506040516112f9929190613aaf565b60405180910390a15050565b60008061131183610cde565b90508073ffffffffffffffffffffffffffffffffffffffff168473ffffffffffffffffffffffffffffffffffffffff16148061138057508373ffffffffffffffffffffffffffffffffffffffff166113688461067c565b73ffffffffffffffffffffffffffffffffffffffff16145b806113915750611390818561105b565b5b91505092915050565b6113a58383836117f0565b6113af83826119b7565b6113b98282611b5b565b505050565b6113c88282611c22565b6113d28282611b5b565b6113db81611d6c565b5050565b6113e88161177e565b15156113f357600080fd5b60606113fe82611db8565b90506114a460128054600181600116156101000203166002900480601f0160208091040260200160405190810160405280929190818152602001828054600181600116156101000203166002900480156114995780601f1061146e57610100808354040283529160200191611499565b820191906000526020600020905b81548152906001019060200180831161147c57829003601f168201915b505050505082611ef2565b6013600084815260200190815260200160002090805190602001906114ca929190612e91565b505050565b6000807f30644e72e131a029b85045b68181585d2833e84879b9709143e1f593f000000190506114fd612f11565b611505611f36565b9050806080015151600186510114151561151e57600080fd5b611526612f59565b6040518060400160405280600081526020016000815250905060008090505b86518110156115ca5783878281518110151561155d57fe5b9060200190602002015110151561157357600080fd5b6115bb826115b685608001516001850181518110151561158f57fe5b906020019060200201518a858151811015156115a757fe5b90602001906020020151612390565b61242a565b91508080600101915050611545565b506115f181836080015160008151811015156115e257fe5b9060200190602002015161242a565b905061163785600001518660200151611609846124e5565b856040015161161b8a604001516124e5565b876060015161162d89600001516124e5565b8960200151612581565b15156116495760019350505050611651565b600093505050505b92915050565b600081600001549050919050565b60006116868473ffffffffffffffffffffffffffffffffffffffff16612705565b15156116955760019050611776565b60008473ffffffffffffffffffffffffffffffffffffffff1663150b7a02338887876040518563ffffffff1660e01b81526004016116d69493929190613a63565b602060405180830381600087803b1580156116f057600080fd5b505af1158015611704573d6000803e3d6000fd5b505050506040513d601f19601f8201168201806040525061172891908101906136c6565b905063150b7a0260e01b7bffffffffffffffffffffffffffffffffffffffffffffffffffffffff1916817bffffffffffffffffffffffffffffffffffffffffffffffffffffffff1916149150505b949350505050565b6000806002600084815260200190815260200160002060009054906101000a900473ffffffffffffffffffffffffffffffffffffffff169050600073ffffffffffffffffffffffffffffffffffffffff168173ffffffffffffffffffffffffffffffffffffffff161415915050919050565b8273ffffffffffffffffffffffffffffffffffffffff1661181082610cde565b73ffffffffffffffffffffffffffffffffffffffff1614151561183257600080fd5b600073ffffffffffffffffffffffffffffffffffffffff168373ffffffffffffffffffffffffffffffffffffffff161415151561186e57600080fd5b61187781612750565b6118be600460008473ffffffffffffffffffffffffffffffffffffffff1673ffffffffffffffffffffffffffffffffffffffff168152602001908152602001600020612810565b611905600460008573ffffffffffffffffffffffffffffffffffffffff1673ffffffffffffffffffffffffffffffffffffffff168152602001908152602001600020612826565b816002600083815260200190815260200160002060006101000a81548173ffffffffffffffffffffffffffffffffffffffff021916908373ffffffffffffffffffffffffffffffffffffffff160217905550808273ffffffffffffffffffffffffffffffffffffffff168473ffffffffffffffffffffffffffffffffffffffff167fddf252ad1be2c89b69c2b068fc378daa952ba7f163c4a11628f55a4df523b3ef60405160405180910390a4505050565b6000611a0f6001600660008673ffffffffffffffffffffffffffffffffffffffff1673ffffffffffffffffffffffffffffffffffffffff1681526020019081526020016000208054905061284990919063ffffffff16565b90506000600760008481526020019081526020016000205490508181141515611b02576000600660008673ffffffffffffffffffffffffffffffffffffffff1673ffffffffffffffffffffffffffffffffffffffff16815260200190815260200160002083815481101515611a8057fe5b9060005260206000200154905080600660008773ffffffffffffffffffffffffffffffffffffffff1673ffffffffffffffffffffffffffffffffffffffff16815260200190815260200160002083815481101515611ada57fe5b9060005260206000200181905550816007600083815260200190815260200160002081905550505b600660008573ffffffffffffffffffffffffffffffffffffffff1673ffffffffffffffffffffffffffffffffffffffff168152602001908152602001600020805480919060019003611b549190612f73565b5050505050565b600660008373ffffffffffffffffffffffffffffffffffffffff1673ffffffffffffffffffffffffffffffffffffffff168152602001908152602001600020805490506007600083815260200190815260200160002081905550600660008373ffffffffffffffffffffffffffffffffffffffff1673ffffffffffffffffffffffffffffffffffffffff1681526020019081526020016000208190806001815401808255809150509060018203906000526020600020016000909192909190915055505050565b611c2b8161177e565b151515611c3757600080fd5b600073ffffffffffffffffffffffffffffffffffffffff168273ffffffffffffffffffffffffffffffffffffffff1614151515611c7357600080fd5b816002600083815260200190815260200160002060006101000a81548173ffffffffffffffffffffffffffffffffffffffff021916908373ffffffffffffffffffffffffffffffffffffffff160217905550611d0c600460008473ffffffffffffffffffffffffffffffffffffffff1673ffffffffffffffffffffffffffffffffffffffff168152602001908152602001600020612810565b808273ffffffffffffffffffffffffffffffffffffffff16600073ffffffffffffffffffffffffffffffffffffffff167fddf252ad1be2c89b69c2b068fc378daa952ba7f163c4a11628f55a4df523b3ef60405160405180910390a45050565b6008805490506009600083815260200190815260200160002081905550600881908060018154018082558091505090600182039060005260206000200160009091929091909150555050565b60606000821415611e00576040518060400160405280600181526020017f30000000000000000000000000000000000000000000000000000000000000008152509050611eed565b600082905060005b600082141515611e2e578080600101915050600a82811515611e2657fe5b049150611e08565b6060816040519080825280601f01601f191660200182016040528015611e635781602001600182028038833980820191505090505b50905060006001830390505b600086141515611ee557600a86811515611e8557fe5b0660300160f81b828280600190039350815181101515611ea157fe5b9060200101907effffffffffffffffffffffffffffffffffffffffffffffffffffffffffffff1916908160001a905350600a86811515611edd57fe5b049550611e6f565b819450505050505b919050565b6060611f2e8383604051806020016040528060008152506040518060200160405280600081525060405180602001604052806000815250612893565b905092915050565b611f3e612f11565b60405180604001604052807f2973a7b5465cc687bde30a347d8d05d78c6add65d6e8ad956f21cf8cc8d64c9981526020017f0242dbb2eaf5636a62ed520b3184079bbbf2ecad6976175634699d70254bee628152508160000181905250604051806040016040528060405180604001604052807f21700615acafb046a24bd485d299cf1c651f9cd4e7c884ff5aad1c02d4ffa77c81526020017f16fd5bb84581fd2a1fb0923fc476161e96d1dccf598b8f69dbf96ee7b590673f815250815260200160405180604001604052807f07e71da0628e260271436779020d5e8ee80599806dc246625df9057ca348d74781526020017f0add0e03af1b140797548e996adc9d4a00d4380c5192b33dcc5d785e369e9a338152508152508160200181905250604051806040016040528060405180604001604052807f280c942ca7b62a58eb8f755b4ef6af90ef68ef15a03ef2aacd713ff64a5ebc2f81526020017f2f6b9df0bc21a1cd6f5abef24f8aa97bf29fcebd1bd13efd96d701e05ada2db5815250815260200160405180604001604052807f02fba3dfb0d29eebcad16aebf543993b9429b7cb9846b6af6844fc8f5aeeae0081526020017f189a1d791f956280096f07c1e9ded5f3062df7eddb8f27eab4e8897cadbd96128152508152508160400181905250604051806040016040528060405180604001604052807f2a04ac0bceae2ca84adf75dfb0c837f21d05e6fb1e1e3ff7f901200ebdbb3a7081526020017f14afca55ef4603172e69defc9947d1b66d45c8e4b2ffc392b335b911cfdf6b2e815250815260200160405180604001604052807f1c03d874f41279277faf1db33c904744182cb2ec7dc53e87157d62312911dd0e81526020017f246f960fd1a9c72761e7f9cd3a6763fb8fd7040e60725fb6e88a80b73f1ee1a18152508152508160600181905250600360405190808252806020026020018201604052801561222557816020015b612212612f9f565b81526020019060019003908161220a5790505b50816080018190525060405180604001604052807f21d65b04e4adb0c7cae3dc822faf3e59cd64c9111c37027bcb359282dd0ae5d481526020017f0e192bb1fcc8dd71a75e6c8cecabc70fc019a94bb8690ef17c81abd3eeb05c1d8152508160800151600081518110151561229657fe5b9060200190602002018190525060405180604001604052807f2d895e73b30085d91b69f21601dd256c931a46567f3e2e45bbf4dba82273f24281526020017f27f4f1e1d15f38602bd22e684dffcb2a02771efc5805cf73a5f3f62d7599d2c88152508160800151600181518110151561230b57fe5b9060200190602002018190525060405180604001604052807f2745e2dfb8aed85b8aa462cd771a8b48c5030bb880a13d8f283355bd88bd30be81526020017f1d63def59dd3c433abcfbcfacec484f3c6a1a47529b055e661ec91a40e1ed9398152508160800151600281518110151561238057fe5b9060200190602002018190525090565b612398612f59565b6123a0612fb9565b83600001518160006003811015156123b457fe5b60200201818152505083602001518160016003811015156123d157fe5b602002018181525050828160026003811015156123ea57fe5b602002018181525050600060608360808460076107d05a03fa9050806000811461241357612415565bfe5b5080151561242257600080fd5b505092915050565b612432612f59565b61243a612fdb565b836000015181600060048110151561244e57fe5b602002018181525050836020015181600160048110151561246b57fe5b602002018181525050826000015181600260048110151561248857fe5b60200201818152505082602001518160036004811015156124a557fe5b602002018181525050600060608360c08460066107d05a03fa905080600081146124ce576124d0565bfe5b508015156124dd57600080fd5b505092915050565b6124ed612f59565b60007f30644e72e131a029b85045b68181585d97816a916871ca8d3c208c16d87cfd4790506000836000015114801561252a575060008360200151145b1561254e57604051806040016040528060008152602001600081525091505061257c565b60405180604001604052808460000151815260200182856020015181151561257257fe5b0683038152509150505b919050565b6000606060046040519080825280602002602001820160405280156125c057816020015b6125ad612f9f565b8152602001906001900390816125a55790505b5090506060600460405190808252806020026020018201604052801561260057816020015b6125ed612ffd565b8152602001906001900390816125e55790505b5090508a82600081518110151561261357fe5b906020019060200201819052508882600181518110151561263057fe5b906020019060200201819052508682600281518110151561264d57fe5b906020019060200201819052508482600381518110151561266a57fe5b906020019060200201819052508981600081518110151561268757fe5b90602001906020020181905250878160018151811015156126a457fe5b90602001906020020181905250858160028151811015156126c157fe5b90602001906020020181905250838160038151811015156126de57fe5b906020019060200201819052506126f58282612b73565b9250505098975050505050505050565b60008060007fc5d2460186f7233c927e7db2dcc703c0e500b653ca82273b7bfad8045d85a47060001b9050833f915080821415801561274757506000801b8214155b92505050919050565b600073ffffffffffffffffffffffffffffffffffffffff166003600083815260200190815260200160002060009054906101000a900473ffffffffffffffffffffffffffffffffffffffff1673ffffffffffffffffffffffffffffffffffffffff1614151561280d5760006003600083815260200190815260200160002060006101000a81548173ffffffffffffffffffffffffffffffffffffffff021916908373ffffffffffffffffffffffffffffffffffffffff1602179055505b50565b6001816000016000828254019250508190555050565b61283e6001826000015461284990919063ffffffff16565b816000018190555050565b600061288b83836040518060400160405280601e81526020017f536166654d6174683a207375627472616374696f6e206f766572666c6f770000815250612e04565b905092915050565b6060808690506060869050606086905060608690506060869050606081518351855187518951010101016040519080825280601f01601f1916602001820160405280156128ef5781602001600182028038833980820191505090505b509050606081905060008090506000809050600090505b885181101561297a57888181518110151561291d57fe5b90602001015160f81c60f81b838380600101945081518110151561293d57fe5b9060200101907effffffffffffffffffffffffffffffffffffffffffffffffffffffffffffff1916908160001a9053508080600101915050612906565b600090505b87518110156129f357878181518110151561299657fe5b90602001015160f81c60f81b83838060010194508151811015156129b657fe5b9060200101907effffffffffffffffffffffffffffffffffffffffffffffffffffffffffffff1916908160001a905350808060010191505061297f565b600090505b8651811015612a6c578681815181101515612a0f57fe5b90602001015160f81c60f81b8383806001019450815181101515612a2f57fe5b9060200101907effffffffffffffffffffffffffffffffffffffffffffffffffffffffffffff1916908160001a90535080806001019150506129f8565b600090505b8551811015612ae5578581815181101515612a8857fe5b90602001015160f81c60f81b8383806001019450815181101515612aa857fe5b9060200101907effffffffffffffffffffffffffffffffffffffffffffffffffffffffffffff1916908160001a9053508080600101915050612a71565b600090505b8451811015612b5e578481815181101515612b0157fe5b90602001015160f81c60f81b8383806001019450815181101515612b2157fe5b9060200101907effffffffffffffffffffffffffffffffffffffffffffffffffffffffffffff1916908160001a9053508080600101915050612aea565b82995050505050505050505095945050505050565b600081518351141515612b8557600080fd5b6000835190506000600682029050606081604051908082528060200260200182016040528015612bc45781602001602082028038833980820191505090505b50905060008090505b83811015612da2578681815181101515612be357fe5b90602001906020020151600001518260006006840201815181101515612c0557fe5b90602001906020020181815250508681815181101515612c2157fe5b90602001906020020151602001518260016006840201815181101515612c4357fe5b90602001906020020181815250508581815181101515612c5f57fe5b90602001906020020151600001516001600281101515612c7b57fe5b60200201518260026006840201815181101515612c9457fe5b90602001906020020181815250508581815181101515612cb057fe5b90602001906020020151600001516000600281101515612ccc57fe5b60200201518260036006840201815181101515612ce557fe5b90602001906020020181815250508581815181101515612d0157fe5b90602001906020020151602001516001600281101515612d1d57fe5b60200201518260046006840201815181101515612d3657fe5b90602001906020020181815250508581815181101515612d5257fe5b90602001906020020151602001516000600281101515612d6e57fe5b60200201518260056006840201815181101515612d8757fe5b90602001906020020181815250508080600101915050612bcd565b50612dab613023565b6000602082602086026020860160086107d05a03fa90508060008114612dd057612dd2565bfe5b50801515612ddf57600080fd5b6000826000600181101515612df057fe5b602002015114159550505050505092915050565b60008383111582901515612e4e576040517f08c379a0000000000000000000000000000000000000000000000000000000008152600401612e459190613b15565b60405180910390fd5b5060008385039050809150509392505050565b604051806040016040528060008152602001600073ffffffffffffffffffffffffffffffffffffffff1681525090565b828054600181600116156101000203166002900490600052602060002090601f016020900481019282601f10612ed257805160ff1916838001178555612f00565b82800160010185558215612f00579182015b82811115612eff578251825591602001919060010190612ee4565b5b509050612f0d9190613045565b5090565b604051806101e00160405280612f25612f9f565b8152602001612f32612ffd565b8152602001612f3f612ffd565b8152602001612f4c612ffd565b8152602001606081525090565b604051806040016040528060008152602001600081525090565b815481835581811115612f9a57818360005260206000209182019101612f999190613045565b5b505050565b604051806040016040528060008152602001600081525090565b6040518060600160405280600390602082028038833980820191505090505090565b6040518060800160405280600490602082028038833980820191505090505090565b604051806080016040528061301061306a565b815260200161301d61306a565b81525090565b6040518060200160405280600190602082028038833980820191505090505090565b61306791905b8082111561306357600081600090555060010161304b565b5090565b90565b6040518060400160405280600290602082028038833980820191505090505090565b60006130988235613d35565b905092915050565b600082601f83011215156130b357600080fd5b60026130c66130c182613bbf565b613b92565b915081838560208402820111156130dc57600080fd5b60005b8381101561310c57816130f28882613381565b8452602084019350602083019250506001810190506130df565b5050505092915050565b600082601f830112151561312957600080fd5b600261313c61313782613be1565b613b92565b9150818385602084028201111561315257600080fd5b60005b8381101561318257816131688882613381565b845260208401935060208301925050600181019050613155565b5050505092915050565b60006131988235613d47565b905092915050565b60006131ac8235613d53565b905092915050565b60006131c08235613d5d565b905092915050565b60006131d48251613d5d565b905092915050565b600082601f83011215156131ef57600080fd5b81356132026131fd82613c03565b613b92565b9150808252602083016020830185838301111561321e57600080fd5b613229838284613de9565b50505092915050565b600082601f830112151561324557600080fd5b813561325861325382613c2f565b613b92565b9150808252602083016020830185838301111561327457600080fd5b61327f838284613de9565b50505092915050565b60006040828403121561329a57600080fd5b6132a46040613b92565b905060006132b484828501613381565b60008301525060206132c884828501613381565b60208301525092915050565b6000608082840312156132e657600080fd5b6132f06040613b92565b90506000613300848285016130a0565b6000830152506040613314848285016130a0565b60208301525092915050565b6000610100828403121561333357600080fd5b61333d6060613b92565b9050600061334d84828501613288565b6000830152506040613361848285016132d4565b60208301525060c061337584828501613288565b60408301525092915050565b600061338d8235613da9565b905092915050565b6000602082840312156133a757600080fd5b60006133b58482850161308c565b91505092915050565b600080604083850312156133d157600080fd5b60006133df8582860161308c565b92505060206133f08582860161308c565b9150509250929050565b60008060006060848603121561340f57600080fd5b600061341d8682870161308c565b935050602061342e8682870161308c565b925050604061343f86828701613381565b9150509250925092565b6000806000806080858703121561345f57600080fd5b600061346d8782880161308c565b945050602061347e8782880161308c565b935050604061348f87828801613381565b925050606085013567ffffffffffffffff8111156134ac57600080fd5b6134b8878288016131dc565b91505092959194509250565b600080604083850312156134d757600080fd5b60006134e58582860161308c565b92505060206134f68582860161318c565b9150509250929050565b6000806040838503121561351357600080fd5b60006135218582860161308c565b925050602061353285828601613381565b9150509250929050565b600080600080610180858703121561355357600080fd5b60006135618782880161308c565b945050602061357287828801613381565b935050604061358387828801613320565b92505061014061359587828801613116565b91505092959194509250565b6000602082840312156135b357600080fd5b60006135c18482850161318c565b91505092915050565b600080604083850312156135dd57600080fd5b60006135eb858286016131a0565b925050602083013567ffffffffffffffff81111561360857600080fd5b61361485828601613232565b9150509250929050565b60008060006060848603121561363357600080fd5b6000613641868287016131a0565b935050602084013567ffffffffffffffff81111561365e57600080fd5b61366a86828701613232565b925050604084013567ffffffffffffffff81111561368757600080fd5b613693868287016131dc565b9150509250925092565b6000602082840312156136af57600080fd5b60006136bd848285016131b4565b91505092915050565b6000602082840312156136d857600080fd5b60006136e6848285016131c8565b91505092915050565b600080610140838503121561370357600080fd5b600061371185828601613320565b92505061010061372385828601613116565b9150509250929050565b60006020828403121561373f57600080fd5b600061374d84828501613381565b91505092915050565b600061376283836139a1565b60208301905092915050565b61377781613db3565b82525050565b61378681613ced565b82525050565b61379581613c7a565b61379f8184613cc0565b92506137aa82613c65565b60005b828110156137d8576137c0858351613756565b94506137cb82613cb3565b91506001810190506137ad565b5050505050565b6137e881613c6f565b6137f28184613cc0565b92506137fd82613c5b565b60005b8281101561382b57613813858351613756565b945061381e82613ca6565b9150600181019050613800565b5050505050565b61383b81613cff565b82525050565b600061384c82613c85565b6138568185613ccb565b9350613866818560208601613df8565b61386f81613e35565b840191505092915050565b600061388582613c9b565b61388f8185613cdc565b935061389f818560208601613df8565b6138a881613e35565b840191505092915050565b60006138be82613c90565b6138c88185613cdc565b93506138d8818560208601613df8565b6138e181613e35565b840191505092915050565b60006138f9601c83613cdc565b91507f536f7272792c206e6f74206120756e6971756520736f6c7574696f6e000000006000830152602082019050919050565b6000613939602e83613cdc565b91507f536f7272792c20796f75206e65656420746f2070726f766964652070726f6f6660008301527f206f66206f776e6572736869702e0000000000000000000000000000000000006020830152604082019050919050565b61399b81613d2b565b82525050565b6139aa81613d2b565b82525050565b6139c16139bc82613d2b565b613e2b565b82525050565b60006139d3828a61378c565b6040820191506139e382896139b0565b6020820191506139f382886139b0565b602082019150613a0382876137df565b604082019150613a1382866137df565b604082019150613a2382856139b0565b602082019150613a3382846139b0565b60208201915081905098975050505050505050565b6000602082019050613a5d600083018461377d565b92915050565b6000608082019050613a78600083018761376e565b613a85602083018661377d565b613a926040830185613992565b8181036060830152613aa48184613841565b905095945050505050565b6000604082019050613ac4600083018561376e565b613ad16020830184613992565b9392505050565b6000602082019050613aed6000830184613832565b92915050565b60006020820190508181036000830152613b0d81846138b3565b905092915050565b60006020820190508181036000830152613b2f818461387a565b905092915050565b60006020820190508181036000830152613b50816138ec565b9050919050565b60006020820190508181036000830152613b708161392c565b9050919050565b6000602082019050613b8c6000830184613992565b92915050565b6000604051905081810181811067ffffffffffffffff82111715613bb557600080fd5b8060405250919050565b600067ffffffffffffffff821115613bd657600080fd5b602082029050919050565b600067ffffffffffffffff821115613bf857600080fd5b602082029050919050565b600067ffffffffffffffff821115613c1a57600080fd5b601f19601f8301169050602081019050919050565b600067ffffffffffffffff821115613c4657600080fd5b601f19601f8301169050602081019050919050565b6000819050919050565b6000819050919050565b600060029050919050565b600060029050919050565b600081519050919050565b600081519050919050565b600081519050919050565b6000602082019050919050565b6000602082019050919050565b600081905092915050565b600082825260208201905092915050565b600082825260208201905092915050565b6000613cf882613d0b565b9050919050565b60008115159050919050565b600073ffffffffffffffffffffffffffffffffffffffff82169050919050565b6000819050919050565b6000613d4082613d89565b9050919050565b60008115159050919050565b6000819050919050565b60007fffffffff0000000000000000000000000000000000000000000000000000000082169050919050565b600073ffffffffffffffffffffffffffffffffffffffff82169050919050565b6000819050919050565b6000613dbe82613dc5565b9050919050565b6000613dd082613dd7565b9050919050565b6000613de282613d0b565b9050919050565b82818337600083830152505050565b60005b83811015613e16578082015181840152602081019050613dfb565b83811115613e25576000848401525b50505050565b6000819050919050565b6000601f19601f830116905091905056fea265627a7a72305820a2a327300103f2d9e4c1b3b041e886bd512116bbaa509a8320888ee21d0e16216c6578706572696d656e74616cf5003768747470733a2f2f73332d75732d776573742d322e616d617a6f6e6177732e636f6d2f756461636974792d626c6f636b636861696e2f63617073746f6e652f",
  "source": "pragma experimental ABIEncoderV2;\npragma solidity ^0.5.5;\n\nimport \"./ZokratesVerifier.sol\";\nimport \"./ERC721Mintable.sol\";\n\n// TODO define a contract call to the zokrates generated solidity contract <Verifier> or <renamedVerifier>\n\n// TODO define another contract named SolnSquareVerifier that inherits from your ERC721Mintable class\ncontract SolnSquareVerifier is Verifier, CustomERC721Token {\n\n    // TODO define a solutions struct that can hold an index & an address\n    struct Solution {\n        uint index;\n        address owner;\n    }\n\n    // TODO define an array of the above struct\n    Solution[] solutions;\n\n\n    // TODO define a mapping to store unique solutions submitted\n    mapping(bytes32 => address) uniqueSolutions;\n\n\n\n    // TODO Create an event to emit when a solution is added\n    event NewSolution(address, uint);\n\n\n    // TODO Create a function to add the solutions to the array and emit the event\n    function addSolution(address owner) internal {\n        Solution memory newSolution = Solution(solutions.length, owner);\n        solutions.push(newSolution);\n        emit NewSolution(msg.sender, solutions.length);\n    }\n\n    // TODO Create a function to mint new NFT only after the solution has been verified\n    //  - make sure the solution is unique (has not been used before)\n    //  - make sure you handle metadata as well as tokenSuplly\n    function mintNFT(address owner, uint id, Proof memory proof, uint[2] memory input) public returns ( bool ) {\n        require(verifyTx(proof, input), \"Sorry, you need to provide proof of ownership.\");\n        // bytes memory solutionHash = abi.encodePacked(uint[input[0], input[1], proof.a[0]]);\n\n        bytes32 solutionHash = keccak256(abi.encodePacked(input, proof.a.X, proof.a.Y, proof.b.X, proof.b.Y, proof.c.X, proof.c.Y));\n        \n        require(uniqueSolutions[solutionHash] == address(0), \"Sorry, not a unique solution\");\n        uniqueSolutions[solutionHash] = owner;\n\n        addSolution(owner);\n       \n        bool minted = mint(owner, id);\n\n        return minted;\n    }\n}\n\n\n\n\n\n\n\n\n  \n\n\n\n\n\n\n\n\n\n\n\n\n\n\n\n\n\n\n\n\n\n\n\n\n\n\n",
  "sourcePath": "/home/richardmands/_cinderhouse/crypto/udacity_nanodegree/Project05Capstone/Capstone/eth-contracts/contracts/SolnSquareVerifier.sol",
  "compiler": {
    "name": "solc",
    "version": "0.5.5+commit.47a71e8f.Emscripten.clang"
  },
  "schemaVersion": "3.4.3",
  "updatedAt": "2021-09-10T21:23:58.786Z",
  "networkType": "ethereum",
  "devdoc": {
    "methods": {
      "isApprovedForAll(address,address)": {
        "details": "Tells whether an operator is approved by a given owner",
        "params": {
          "operator": "operator address which you want to query the approval of",
          "owner": "owner address which you want to query the approval of"
        },
        "return": "bool whether the given operator is approved by the given owner"
      },
      "setApprovalForAll(address,bool)": {
        "details": "Sets or unsets the approval of a given operator An operator is allowed to transfer all tokens of the sender on their behalf",
        "params": {
          "approved": "representing the status of the approval to be set",
          "to": "operator address to set the approval"
        }
      },
      "supportsInterface(bytes4)": {
        "details": "implement supportsInterface(bytes4) using a lookup table"
      },
      "tokenByIndex(uint256)": {
        "details": "Gets the token ID at a given index of all the tokens in this contract Reverts if the index is greater or equal to the total number of tokens",
        "params": {
          "index": "uint256 representing the index to be accessed of the tokens list"
        },
        "return": "uint256 token ID at the given index of the tokens list"
      },
      "tokenOfOwnerByIndex(address,uint256)": {
        "details": "Gets the token ID at a given index of the tokens list of the requested owner",
        "params": {
          "index": "uint256 representing the index to be accessed of the requested tokens list",
          "owner": "address owning the tokens list to be accessed"
        },
        "return": "uint256 token ID at the given index of the tokens list owned by the requested address"
      },
      "totalSupply()": {
        "details": "Gets the total amount of tokens stored by the contract",
        "return": "uint256 representing the total amount of tokens"
      }
    }
  },
  "userdoc": {
    "methods": {}
  }
}